{"contracts/Pixie.sol":{"Pixie":{"abi":[{"inputs":[],"stateMutability":"payable","type":"constructor"},{"inputs":[{"internalType":"uint256","name":"_id","type":"uint256"},{"internalType":"enum Access","name":"_access","type":"uint8"}],"name":"changeAccess","outputs":[],"stateMutability":"nonpayable","type":"function"},{"inputs":[{"internalType":"uint256","name":"_id","type":"uint256"}],"name":"checkAccess","outputs":[{"internalType":"enum Access","name":"","type":"uint8"}],"stateMutability":"view","type":"function"},{"inputs":[],"name":"createFile","outputs":[],"stateMutability":"nonpayable","type":"function"},{"inputs":[{"internalType":"uint256","name":"_id","type":"uint256"}],"name":"getFile","outputs":[{"components":[{"internalType":"uint256","name":"id","type":"uint256"},{"internalType":"address","name":"owner","type":"address"},{"internalType":"string","name":"content","type":"string"},{"internalType":"enum Access","name":"access","type":"uint8"}],"internalType":"struct Pixie.File","name":"","type":"tuple"}],"stateMutability":"view","type":"function"},{"inputs":[{"internalType":"address","name":"_user","type":"address"}],"name":"getUser","outputs":[{"components":[{"internalType":"string","name":"name","type":"string"},{"internalType":"bool","name":"exists","type":"bool"},{"internalType":"uint256[]","name":"myFiles","type":"uint256[]"}],"internalType":"struct Pixie.User","name":"","type":"tuple"}],"stateMutability":"view","type":"function"},{"inputs":[],"name":"owner","outputs":[{"internalType":"address payable","name":"","type":"address"}],"stateMutability":"view","type":"function"}],"evm":{"bytecode":{"linkReferences":{},"object":"60008054336001600160a01b031990911617905560c0604052601c60809081527f436f6e7472616374206465706c6f7965642c206f776e6572207365740000000060a0526100579061005c602090811b6105ca17901c565b61011c565b6100a38160405160240161007091906100c7565b60408051601f198184030181529190526020810180516001600160e01b0390811663104c13eb60e21b179091526100a616565b50565b80516a636f6e736f6c652e6c6f67602083016000808483855afa5050505050565b600060208083528351808285015260005b818110156100f4578581018301518582016040015282016100d8565b81811115610106576000604083870101525b50601f01601f1916929092016040019392505050565b6109da8061012b6000396000f3fe608060405234801561001057600080fd5b50600436106100625760003560e01c80632bfda31314610067578063351355c014610090578063476672b61461009a5780636e583cac146100ad5780636f77926b146100e05780638da5cb5b14610100575b600080fd5b61007a610075366004610754565b61012b565b60405161008791906107f2565b60405180910390f35b610098610233565b005b6100986100a8366004610846565b6103dc565b6100d36100bb366004610754565b60009081526002602052604090206003015460ff1690565b604051610087919061087a565b6100f36100ee36600461088e565b61048f565b60405161008791906108be565b600054610113906001600160a01b031681565b6040516001600160a01b039091168152602001610087565b61013361067a565b60008281526002602081815260409283902083516080810185528154815260018201546001600160a01b0316928101929092529182018054919384019161017990610934565b80601f01602080910402602001604051908101604052809291908181526020018280546101a590610934565b80156101f25780601f106101c7576101008083540402835291602001916101f2565b820191906000526020600020905b8154815290600101906020018083116101d557829003601f168201915b5050509183525050600382015460209091019060ff166002811115610219576102196107ba565b600281111561022a5761022a6107ba565b90525092915050565b3360009081526003602052604090206001015460ff16156102915760405162461bcd60e51b8152602060048201526013602482015272155cd95c88111bd95cc81b9bdd08195e1a5cdd606a1b60448201526064015b60405180910390fd5b600061029c60015490565b90506102ac600180546001019055565b60006040518060800160405280838152602001336001600160a01b031681526020016040518060400160405280600381526020016261626360e81b815250815260200160006002811115610302576103026107ba565b81525090506103356040518060400160405280600c81526020016b199a5b194818dc99585d195960a21b81525083610610565b60008281526002602081815260409283902084518155848201516001820180546001600160a01b0319166001600160a01b03909216919091179055928401518051859493610388939085019201906106bb565b50606082015160038201805460ff191660018360028111156103ac576103ac6107ba565b02179055505033600090815260036020908152604082206002018054600181018255908352912001929092555050565b60008281526002602052604090206001015482906001600160a01b031633146104525760405162461bcd60e51b815260206004820152602260248201527f596f7520617265206e6f7420746865206f776e6572206f6620746869732066696044820152616c6560f01b6064820152608401610288565b60008381526002602081905260409091206003018054849260ff19909116906001908490811115610485576104856107ba565b0217905550505050565b604080516060808201835280825260006020830152918101919091526001600160a01b038216600090815260036020526040908190208151606081019092528054829082906104dd90610934565b80601f016020809104026020016040519081016040528092919081815260200182805461050990610934565b80156105565780601f1061052b57610100808354040283529160200191610556565b820191906000526020600020905b81548152906001019060200180831161053957829003601f168201915b5050509183525050600182015460ff16151560208083019190915260028301805460408051828502810185018252828152940193928301828280156105ba57602002820191906000526020600020905b8154815260200190600101908083116105a6575b5050505050815250509050919050565b61060d816040516024016105de919061096f565b60408051601f198184030181529190526020810180516001600160e01b031663104c13eb60e21b179052610659565b50565b6106558282604051602401610626929190610982565b60408051601f198184030181529190526020810180516001600160e01b0316632d839cb360e21b179052610659565b5050565b80516a636f6e736f6c652e6c6f67602083016000808483855afa5050505050565b60405180608001604052806000815260200160006001600160a01b0316815260200160608152602001600060028111156106b6576106b66107ba565b905290565b8280546106c790610934565b90600052602060002090601f0160209004810192826106e9576000855561072f565b82601f1061070257805160ff191683800117855561072f565b8280016001018555821561072f579182015b8281111561072f578251825591602001919060010190610714565b5061073b92915061073f565b5090565b5b8082111561073b5760008155600101610740565b60006020828403121561076657600080fd5b5035919050565b6000815180845260005b8181101561079357602081850181015186830182015201610777565b818111156107a5576000602083870101525b50601f01601f19169290920160200192915050565b634e487b7160e01b600052602160045260246000fd5b600381106107ee57634e487b7160e01b600052602160045260246000fd5b9052565b602081528151602082015260018060a01b036020830151166040820152600060408301516080606084015261082a60a084018261076d565b9050606084015161083e60808501826107d0565b509392505050565b6000806040838503121561085957600080fd5b8235915060208301356003811061086f57600080fd5b809150509250929050565b6020810161088882846107d0565b92915050565b6000602082840312156108a057600080fd5b81356001600160a01b03811681146108b757600080fd5b9392505050565b6000602080835283516060828501526108da608085018261076d565b858301511515604086810191909152860151858203601f19016060870152805180835290840192506000918401905b808310156109295783518252928401926001929092019190840190610909565b509695505050505050565b600181811c9082168061094857607f821691505b6020821081141561096957634e487b7160e01b600052602260045260246000fd5b50919050565b6020815260006108b7602083018461076d565b604081526000610995604083018561076d565b9050826020830152939250505056fea26469706673582212200b33350abcbe303c0f46d2fb899c6228ccb7c8a5d0d190a17a0145c39c94bbd164736f6c63430008090033","opcodes":"PUSH1 0x0 DUP1 SLOAD CALLER PUSH1 0x1 PUSH1 0x1 PUSH1 0xA0 SHL SUB NOT SWAP1 SWAP2 AND OR SWAP1 SSTORE PUSH1 0xC0 PUSH1 0x40 MSTORE PUSH1 0x1C PUSH1 0x80 SWAP1 DUP2 MSTORE PUSH32 0x436F6E7472616374206465706C6F7965642C206F776E65722073657400000000 PUSH1 0xA0 MSTORE PUSH2 0x57 SWAP1 PUSH2 0x5C PUSH1 0x20 SWAP1 DUP2 SHL PUSH2 0x5CA OR SWAP1 SHR JUMP JUMPDEST PUSH2 0x11C JUMP JUMPDEST PUSH2 0xA3 DUP2 PUSH1 0x40 MLOAD PUSH1 0x24 ADD PUSH2 0x70 SWAP2 SWAP1 PUSH2 0xC7 JUMP JUMPDEST PUSH1 0x40 DUP1 MLOAD PUSH1 0x1F NOT DUP2 DUP5 SUB ADD DUP2 MSTORE SWAP2 SWAP1 MSTORE PUSH1 0x20 DUP2 ADD DUP1 MLOAD PUSH1 0x1 PUSH1 0x1 PUSH1 0xE0 SHL SUB SWAP1 DUP2 AND PUSH4 0x104C13EB PUSH1 0xE2 SHL OR SWAP1 SWAP2 MSTORE PUSH2 0xA6 AND JUMP JUMPDEST POP JUMP JUMPDEST DUP1 MLOAD PUSH11 0x636F6E736F6C652E6C6F67 PUSH1 0x20 DUP4 ADD PUSH1 0x0 DUP1 DUP5 DUP4 DUP6 GAS STATICCALL POP POP POP POP POP JUMP JUMPDEST PUSH1 0x0 PUSH1 0x20 DUP1 DUP4 MSTORE DUP4 MLOAD DUP1 DUP3 DUP6 ADD MSTORE PUSH1 0x0 JUMPDEST DUP2 DUP2 LT ISZERO PUSH2 0xF4 JUMPI DUP6 DUP2 ADD DUP4 ADD MLOAD DUP6 DUP3 ADD PUSH1 0x40 ADD MSTORE DUP3 ADD PUSH2 0xD8 JUMP JUMPDEST DUP2 DUP2 GT ISZERO PUSH2 0x106 JUMPI PUSH1 0x0 PUSH1 0x40 DUP4 DUP8 ADD ADD MSTORE JUMPDEST POP PUSH1 0x1F ADD PUSH1 0x1F NOT AND SWAP3 SWAP1 SWAP3 ADD PUSH1 0x40 ADD SWAP4 SWAP3 POP POP POP JUMP JUMPDEST PUSH2 0x9DA DUP1 PUSH2 0x12B PUSH1 0x0 CODECOPY PUSH1 0x0 RETURN INVALID PUSH1 0x80 PUSH1 0x40 MSTORE CALLVALUE DUP1 ISZERO PUSH2 0x10 JUMPI PUSH1 0x0 DUP1 REVERT JUMPDEST POP PUSH1 0x4 CALLDATASIZE LT PUSH2 0x62 JUMPI PUSH1 0x0 CALLDATALOAD PUSH1 0xE0 SHR DUP1 PUSH4 0x2BFDA313 EQ PUSH2 0x67 JUMPI DUP1 PUSH4 0x351355C0 EQ PUSH2 0x90 JUMPI DUP1 PUSH4 0x476672B6 EQ PUSH2 0x9A JUMPI DUP1 PUSH4 0x6E583CAC EQ PUSH2 0xAD JUMPI DUP1 PUSH4 0x6F77926B EQ PUSH2 0xE0 JUMPI DUP1 PUSH4 0x8DA5CB5B EQ PUSH2 0x100 JUMPI JUMPDEST PUSH1 0x0 DUP1 REVERT JUMPDEST PUSH2 0x7A PUSH2 0x75 CALLDATASIZE PUSH1 0x4 PUSH2 0x754 JUMP JUMPDEST PUSH2 0x12B JUMP JUMPDEST PUSH1 0x40 MLOAD PUSH2 0x87 SWAP2 SWAP1 PUSH2 0x7F2 JUMP JUMPDEST PUSH1 0x40 MLOAD DUP1 SWAP2 SUB SWAP1 RETURN JUMPDEST PUSH2 0x98 PUSH2 0x233 JUMP JUMPDEST STOP JUMPDEST PUSH2 0x98 PUSH2 0xA8 CALLDATASIZE PUSH1 0x4 PUSH2 0x846 JUMP JUMPDEST PUSH2 0x3DC JUMP JUMPDEST PUSH2 0xD3 PUSH2 0xBB CALLDATASIZE PUSH1 0x4 PUSH2 0x754 JUMP JUMPDEST PUSH1 0x0 SWAP1 DUP2 MSTORE PUSH1 0x2 PUSH1 0x20 MSTORE PUSH1 0x40 SWAP1 KECCAK256 PUSH1 0x3 ADD SLOAD PUSH1 0xFF AND SWAP1 JUMP JUMPDEST PUSH1 0x40 MLOAD PUSH2 0x87 SWAP2 SWAP1 PUSH2 0x87A JUMP JUMPDEST PUSH2 0xF3 PUSH2 0xEE CALLDATASIZE PUSH1 0x4 PUSH2 0x88E JUMP JUMPDEST PUSH2 0x48F JUMP JUMPDEST PUSH1 0x40 MLOAD PUSH2 0x87 SWAP2 SWAP1 PUSH2 0x8BE JUMP JUMPDEST PUSH1 0x0 SLOAD PUSH2 0x113 SWAP1 PUSH1 0x1 PUSH1 0x1 PUSH1 0xA0 SHL SUB AND DUP2 JUMP JUMPDEST PUSH1 0x40 MLOAD PUSH1 0x1 PUSH1 0x1 PUSH1 0xA0 SHL SUB SWAP1 SWAP2 AND DUP2 MSTORE PUSH1 0x20 ADD PUSH2 0x87 JUMP JUMPDEST PUSH2 0x133 PUSH2 0x67A JUMP JUMPDEST PUSH1 0x0 DUP3 DUP2 MSTORE PUSH1 0x2 PUSH1 0x20 DUP2 DUP2 MSTORE PUSH1 0x40 SWAP3 DUP4 SWAP1 KECCAK256 DUP4 MLOAD PUSH1 0x80 DUP2 ADD DUP6 MSTORE DUP2 SLOAD DUP2 MSTORE PUSH1 0x1 DUP3 ADD SLOAD PUSH1 0x1 PUSH1 0x1 PUSH1 0xA0 SHL SUB AND SWAP3 DUP2 ADD SWAP3 SWAP1 SWAP3 MSTORE SWAP2 DUP3 ADD DUP1 SLOAD SWAP2 SWAP4 DUP5 ADD SWAP2 PUSH2 0x179 SWAP1 PUSH2 0x934 JUMP JUMPDEST DUP1 PUSH1 0x1F ADD PUSH1 0x20 DUP1 SWAP2 DIV MUL PUSH1 0x20 ADD PUSH1 0x40 MLOAD SWAP1 DUP2 ADD PUSH1 0x40 MSTORE DUP1 SWAP3 SWAP2 SWAP1 DUP2 DUP2 MSTORE PUSH1 0x20 ADD DUP3 DUP1 SLOAD PUSH2 0x1A5 SWAP1 PUSH2 0x934 JUMP JUMPDEST DUP1 ISZERO PUSH2 0x1F2 JUMPI DUP1 PUSH1 0x1F LT PUSH2 0x1C7 JUMPI PUSH2 0x100 DUP1 DUP4 SLOAD DIV MUL DUP4 MSTORE SWAP2 PUSH1 0x20 ADD SWAP2 PUSH2 0x1F2 JUMP JUMPDEST DUP3 ADD SWAP2 SWAP1 PUSH1 0x0 MSTORE PUSH1 0x20 PUSH1 0x0 KECCAK256 SWAP1 JUMPDEST DUP2 SLOAD DUP2 MSTORE SWAP1 PUSH1 0x1 ADD SWAP1 PUSH1 0x20 ADD DUP1 DUP4 GT PUSH2 0x1D5 JUMPI DUP3 SWAP1 SUB PUSH1 0x1F AND DUP3 ADD SWAP2 JUMPDEST POP POP POP SWAP2 DUP4 MSTORE POP POP PUSH1 0x3 DUP3 ADD SLOAD PUSH1 0x20 SWAP1 SWAP2 ADD SWAP1 PUSH1 0xFF AND PUSH1 0x2 DUP2 GT ISZERO PUSH2 0x219 JUMPI PUSH2 0x219 PUSH2 0x7BA JUMP JUMPDEST PUSH1 0x2 DUP2 GT ISZERO PUSH2 0x22A JUMPI PUSH2 0x22A PUSH2 0x7BA JUMP JUMPDEST SWAP1 MSTORE POP SWAP3 SWAP2 POP POP JUMP JUMPDEST CALLER PUSH1 0x0 SWAP1 DUP2 MSTORE PUSH1 0x3 PUSH1 0x20 MSTORE PUSH1 0x40 SWAP1 KECCAK256 PUSH1 0x1 ADD SLOAD PUSH1 0xFF AND ISZERO PUSH2 0x291 JUMPI PUSH1 0x40 MLOAD PUSH3 0x461BCD PUSH1 0xE5 SHL DUP2 MSTORE PUSH1 0x20 PUSH1 0x4 DUP3 ADD MSTORE PUSH1 0x13 PUSH1 0x24 DUP3 ADD MSTORE PUSH19 0x155CD95C88111BD95CC81B9BDD08195E1A5CDD PUSH1 0x6A SHL PUSH1 0x44 DUP3 ADD MSTORE PUSH1 0x64 ADD JUMPDEST PUSH1 0x40 MLOAD DUP1 SWAP2 SUB SWAP1 REVERT JUMPDEST PUSH1 0x0 PUSH2 0x29C PUSH1 0x1 SLOAD SWAP1 JUMP JUMPDEST SWAP1 POP PUSH2 0x2AC PUSH1 0x1 DUP1 SLOAD PUSH1 0x1 ADD SWAP1 SSTORE JUMP JUMPDEST PUSH1 0x0 PUSH1 0x40 MLOAD DUP1 PUSH1 0x80 ADD PUSH1 0x40 MSTORE DUP1 DUP4 DUP2 MSTORE PUSH1 0x20 ADD CALLER PUSH1 0x1 PUSH1 0x1 PUSH1 0xA0 SHL SUB AND DUP2 MSTORE PUSH1 0x20 ADD PUSH1 0x40 MLOAD DUP1 PUSH1 0x40 ADD PUSH1 0x40 MSTORE DUP1 PUSH1 0x3 DUP2 MSTORE PUSH1 0x20 ADD PUSH3 0x616263 PUSH1 0xE8 SHL DUP2 MSTORE POP DUP2 MSTORE PUSH1 0x20 ADD PUSH1 0x0 PUSH1 0x2 DUP2 GT ISZERO PUSH2 0x302 JUMPI PUSH2 0x302 PUSH2 0x7BA JUMP JUMPDEST DUP2 MSTORE POP SWAP1 POP PUSH2 0x335 PUSH1 0x40 MLOAD DUP1 PUSH1 0x40 ADD PUSH1 0x40 MSTORE DUP1 PUSH1 0xC DUP2 MSTORE PUSH1 0x20 ADD PUSH12 0x199A5B194818DC99585D1959 PUSH1 0xA2 SHL DUP2 MSTORE POP DUP4 PUSH2 0x610 JUMP JUMPDEST PUSH1 0x0 DUP3 DUP2 MSTORE PUSH1 0x2 PUSH1 0x20 DUP2 DUP2 MSTORE PUSH1 0x40 SWAP3 DUP4 SWAP1 KECCAK256 DUP5 MLOAD DUP2 SSTORE DUP5 DUP3 ADD MLOAD PUSH1 0x1 DUP3 ADD DUP1 SLOAD PUSH1 0x1 PUSH1 0x1 PUSH1 0xA0 SHL SUB NOT AND PUSH1 0x1 PUSH1 0x1 PUSH1 0xA0 SHL SUB SWAP1 SWAP3 AND SWAP2 SWAP1 SWAP2 OR SWAP1 SSTORE SWAP3 DUP5 ADD MLOAD DUP1 MLOAD DUP6 SWAP5 SWAP4 PUSH2 0x388 SWAP4 SWAP1 DUP6 ADD SWAP3 ADD SWAP1 PUSH2 0x6BB JUMP JUMPDEST POP PUSH1 0x60 DUP3 ADD MLOAD PUSH1 0x3 DUP3 ADD DUP1 SLOAD PUSH1 0xFF NOT AND PUSH1 0x1 DUP4 PUSH1 0x2 DUP2 GT ISZERO PUSH2 0x3AC JUMPI PUSH2 0x3AC PUSH2 0x7BA JUMP JUMPDEST MUL OR SWAP1 SSTORE POP POP CALLER PUSH1 0x0 SWAP1 DUP2 MSTORE PUSH1 0x3 PUSH1 0x20 SWAP1 DUP2 MSTORE PUSH1 0x40 DUP3 KECCAK256 PUSH1 0x2 ADD DUP1 SLOAD PUSH1 0x1 DUP2 ADD DUP3 SSTORE SWAP1 DUP4 MSTORE SWAP2 KECCAK256 ADD SWAP3 SWAP1 SWAP3 SSTORE POP POP JUMP JUMPDEST PUSH1 0x0 DUP3 DUP2 MSTORE PUSH1 0x2 PUSH1 0x20 MSTORE PUSH1 0x40 SWAP1 KECCAK256 PUSH1 0x1 ADD SLOAD DUP3 SWAP1 PUSH1 0x1 PUSH1 0x1 PUSH1 0xA0 SHL SUB AND CALLER EQ PUSH2 0x452 JUMPI PUSH1 0x40 MLOAD PUSH3 0x461BCD PUSH1 0xE5 SHL DUP2 MSTORE PUSH1 0x20 PUSH1 0x4 DUP3 ADD MSTORE PUSH1 0x22 PUSH1 0x24 DUP3 ADD MSTORE PUSH32 0x596F7520617265206E6F7420746865206F776E6572206F662074686973206669 PUSH1 0x44 DUP3 ADD MSTORE PUSH2 0x6C65 PUSH1 0xF0 SHL PUSH1 0x64 DUP3 ADD MSTORE PUSH1 0x84 ADD PUSH2 0x288 JUMP JUMPDEST PUSH1 0x0 DUP4 DUP2 MSTORE PUSH1 0x2 PUSH1 0x20 DUP2 SWAP1 MSTORE PUSH1 0x40 SWAP1 SWAP2 KECCAK256 PUSH1 0x3 ADD DUP1 SLOAD DUP5 SWAP3 PUSH1 0xFF NOT SWAP1 SWAP2 AND SWAP1 PUSH1 0x1 SWAP1 DUP5 SWAP1 DUP2 GT ISZERO PUSH2 0x485 JUMPI PUSH2 0x485 PUSH2 0x7BA JUMP JUMPDEST MUL OR SWAP1 SSTORE POP POP POP POP JUMP JUMPDEST PUSH1 0x40 DUP1 MLOAD PUSH1 0x60 DUP1 DUP3 ADD DUP4 MSTORE DUP1 DUP3 MSTORE PUSH1 0x0 PUSH1 0x20 DUP4 ADD MSTORE SWAP2 DUP2 ADD SWAP2 SWAP1 SWAP2 MSTORE PUSH1 0x1 PUSH1 0x1 PUSH1 0xA0 SHL SUB DUP3 AND PUSH1 0x0 SWAP1 DUP2 MSTORE PUSH1 0x3 PUSH1 0x20 MSTORE PUSH1 0x40 SWAP1 DUP2 SWAP1 KECCAK256 DUP2 MLOAD PUSH1 0x60 DUP2 ADD SWAP1 SWAP3 MSTORE DUP1 SLOAD DUP3 SWAP1 DUP3 SWAP1 PUSH2 0x4DD SWAP1 PUSH2 0x934 JUMP JUMPDEST DUP1 PUSH1 0x1F ADD PUSH1 0x20 DUP1 SWAP2 DIV MUL PUSH1 0x20 ADD PUSH1 0x40 MLOAD SWAP1 DUP2 ADD PUSH1 0x40 MSTORE DUP1 SWAP3 SWAP2 SWAP1 DUP2 DUP2 MSTORE PUSH1 0x20 ADD DUP3 DUP1 SLOAD PUSH2 0x509 SWAP1 PUSH2 0x934 JUMP JUMPDEST DUP1 ISZERO PUSH2 0x556 JUMPI DUP1 PUSH1 0x1F LT PUSH2 0x52B JUMPI PUSH2 0x100 DUP1 DUP4 SLOAD DIV MUL DUP4 MSTORE SWAP2 PUSH1 0x20 ADD SWAP2 PUSH2 0x556 JUMP JUMPDEST DUP3 ADD SWAP2 SWAP1 PUSH1 0x0 MSTORE PUSH1 0x20 PUSH1 0x0 KECCAK256 SWAP1 JUMPDEST DUP2 SLOAD DUP2 MSTORE SWAP1 PUSH1 0x1 ADD SWAP1 PUSH1 0x20 ADD DUP1 DUP4 GT PUSH2 0x539 JUMPI DUP3 SWAP1 SUB PUSH1 0x1F AND DUP3 ADD SWAP2 JUMPDEST POP POP POP SWAP2 DUP4 MSTORE POP POP PUSH1 0x1 DUP3 ADD SLOAD PUSH1 0xFF AND ISZERO ISZERO PUSH1 0x20 DUP1 DUP4 ADD SWAP2 SWAP1 SWAP2 MSTORE PUSH1 0x2 DUP4 ADD DUP1 SLOAD PUSH1 0x40 DUP1 MLOAD DUP3 DUP6 MUL DUP2 ADD DUP6 ADD DUP3 MSTORE DUP3 DUP2 MSTORE SWAP5 ADD SWAP4 SWAP3 DUP4 ADD DUP3 DUP3 DUP1 ISZERO PUSH2 0x5BA JUMPI PUSH1 0x20 MUL DUP3 ADD SWAP2 SWAP1 PUSH1 0x0 MSTORE PUSH1 0x20 PUSH1 0x0 KECCAK256 SWAP1 JUMPDEST DUP2 SLOAD DUP2 MSTORE PUSH1 0x20 ADD SWAP1 PUSH1 0x1 ADD SWAP1 DUP1 DUP4 GT PUSH2 0x5A6 JUMPI JUMPDEST POP POP POP POP POP DUP2 MSTORE POP POP SWAP1 POP SWAP2 SWAP1 POP JUMP JUMPDEST PUSH2 0x60D DUP2 PUSH1 0x40 MLOAD PUSH1 0x24 ADD PUSH2 0x5DE SWAP2 SWAP1 PUSH2 0x96F JUMP JUMPDEST PUSH1 0x40 DUP1 MLOAD PUSH1 0x1F NOT DUP2 DUP5 SUB ADD DUP2 MSTORE SWAP2 SWAP1 MSTORE PUSH1 0x20 DUP2 ADD DUP1 MLOAD PUSH1 0x1 PUSH1 0x1 PUSH1 0xE0 SHL SUB AND PUSH4 0x104C13EB PUSH1 0xE2 SHL OR SWAP1 MSTORE PUSH2 0x659 JUMP JUMPDEST POP JUMP JUMPDEST PUSH2 0x655 DUP3 DUP3 PUSH1 0x40 MLOAD PUSH1 0x24 ADD PUSH2 0x626 SWAP3 SWAP2 SWAP1 PUSH2 0x982 JUMP JUMPDEST PUSH1 0x40 DUP1 MLOAD PUSH1 0x1F NOT DUP2 DUP5 SUB ADD DUP2 MSTORE SWAP2 SWAP1 MSTORE PUSH1 0x20 DUP2 ADD DUP1 MLOAD PUSH1 0x1 PUSH1 0x1 PUSH1 0xE0 SHL SUB AND PUSH4 0x2D839CB3 PUSH1 0xE2 SHL OR SWAP1 MSTORE PUSH2 0x659 JUMP JUMPDEST POP POP JUMP JUMPDEST DUP1 MLOAD PUSH11 0x636F6E736F6C652E6C6F67 PUSH1 0x20 DUP4 ADD PUSH1 0x0 DUP1 DUP5 DUP4 DUP6 GAS STATICCALL POP POP POP POP POP JUMP JUMPDEST PUSH1 0x40 MLOAD DUP1 PUSH1 0x80 ADD PUSH1 0x40 MSTORE DUP1 PUSH1 0x0 DUP2 MSTORE PUSH1 0x20 ADD PUSH1 0x0 PUSH1 0x1 PUSH1 0x1 PUSH1 0xA0 SHL SUB AND DUP2 MSTORE PUSH1 0x20 ADD PUSH1 0x60 DUP2 MSTORE PUSH1 0x20 ADD PUSH1 0x0 PUSH1 0x2 DUP2 GT ISZERO PUSH2 0x6B6 JUMPI PUSH2 0x6B6 PUSH2 0x7BA JUMP JUMPDEST SWAP1 MSTORE SWAP1 JUMP JUMPDEST DUP3 DUP1 SLOAD PUSH2 0x6C7 SWAP1 PUSH2 0x934 JUMP JUMPDEST SWAP1 PUSH1 0x0 MSTORE PUSH1 0x20 PUSH1 0x0 KECCAK256 SWAP1 PUSH1 0x1F ADD PUSH1 0x20 SWAP1 DIV DUP2 ADD SWAP3 DUP3 PUSH2 0x6E9 JUMPI PUSH1 0x0 DUP6 SSTORE PUSH2 0x72F JUMP JUMPDEST DUP3 PUSH1 0x1F LT PUSH2 0x702 JUMPI DUP1 MLOAD PUSH1 0xFF NOT AND DUP4 DUP1 ADD OR DUP6 SSTORE PUSH2 0x72F JUMP JUMPDEST DUP3 DUP1 ADD PUSH1 0x1 ADD DUP6 SSTORE DUP3 ISZERO PUSH2 0x72F JUMPI SWAP2 DUP3 ADD JUMPDEST DUP3 DUP2 GT ISZERO PUSH2 0x72F JUMPI DUP3 MLOAD DUP3 SSTORE SWAP2 PUSH1 0x20 ADD SWAP2 SWAP1 PUSH1 0x1 ADD SWAP1 PUSH2 0x714 JUMP JUMPDEST POP PUSH2 0x73B SWAP3 SWAP2 POP PUSH2 0x73F JUMP JUMPDEST POP SWAP1 JUMP JUMPDEST JUMPDEST DUP1 DUP3 GT ISZERO PUSH2 0x73B JUMPI PUSH1 0x0 DUP2 SSTORE PUSH1 0x1 ADD PUSH2 0x740 JUMP JUMPDEST PUSH1 0x0 PUSH1 0x20 DUP3 DUP5 SUB SLT ISZERO PUSH2 0x766 JUMPI PUSH1 0x0 DUP1 REVERT JUMPDEST POP CALLDATALOAD SWAP2 SWAP1 POP JUMP JUMPDEST PUSH1 0x0 DUP2 MLOAD DUP1 DUP5 MSTORE PUSH1 0x0 JUMPDEST DUP2 DUP2 LT ISZERO PUSH2 0x793 JUMPI PUSH1 0x20 DUP2 DUP6 ADD DUP2 ADD MLOAD DUP7 DUP4 ADD DUP3 ADD MSTORE ADD PUSH2 0x777 JUMP JUMPDEST DUP2 DUP2 GT ISZERO PUSH2 0x7A5 JUMPI PUSH1 0x0 PUSH1 0x20 DUP4 DUP8 ADD ADD MSTORE JUMPDEST POP PUSH1 0x1F ADD PUSH1 0x1F NOT AND SWAP3 SWAP1 SWAP3 ADD PUSH1 0x20 ADD SWAP3 SWAP2 POP POP JUMP JUMPDEST PUSH4 0x4E487B71 PUSH1 0xE0 SHL PUSH1 0x0 MSTORE PUSH1 0x21 PUSH1 0x4 MSTORE PUSH1 0x24 PUSH1 0x0 REVERT JUMPDEST PUSH1 0x3 DUP2 LT PUSH2 0x7EE JUMPI PUSH4 0x4E487B71 PUSH1 0xE0 SHL PUSH1 0x0 MSTORE PUSH1 0x21 PUSH1 0x4 MSTORE PUSH1 0x24 PUSH1 0x0 REVERT JUMPDEST SWAP1 MSTORE JUMP JUMPDEST PUSH1 0x20 DUP2 MSTORE DUP2 MLOAD PUSH1 0x20 DUP3 ADD MSTORE PUSH1 0x1 DUP1 PUSH1 0xA0 SHL SUB PUSH1 0x20 DUP4 ADD MLOAD AND PUSH1 0x40 DUP3 ADD MSTORE PUSH1 0x0 PUSH1 0x40 DUP4 ADD MLOAD PUSH1 0x80 PUSH1 0x60 DUP5 ADD MSTORE PUSH2 0x82A PUSH1 0xA0 DUP5 ADD DUP3 PUSH2 0x76D JUMP JUMPDEST SWAP1 POP PUSH1 0x60 DUP5 ADD MLOAD PUSH2 0x83E PUSH1 0x80 DUP6 ADD DUP3 PUSH2 0x7D0 JUMP JUMPDEST POP SWAP4 SWAP3 POP POP POP JUMP JUMPDEST PUSH1 0x0 DUP1 PUSH1 0x40 DUP4 DUP6 SUB SLT ISZERO PUSH2 0x859 JUMPI PUSH1 0x0 DUP1 REVERT JUMPDEST DUP3 CALLDATALOAD SWAP2 POP PUSH1 0x20 DUP4 ADD CALLDATALOAD PUSH1 0x3 DUP2 LT PUSH2 0x86F JUMPI PUSH1 0x0 DUP1 REVERT JUMPDEST DUP1 SWAP2 POP POP SWAP3 POP SWAP3 SWAP1 POP JUMP JUMPDEST PUSH1 0x20 DUP2 ADD PUSH2 0x888 DUP3 DUP5 PUSH2 0x7D0 JUMP JUMPDEST SWAP3 SWAP2 POP POP JUMP JUMPDEST PUSH1 0x0 PUSH1 0x20 DUP3 DUP5 SUB SLT ISZERO PUSH2 0x8A0 JUMPI PUSH1 0x0 DUP1 REVERT JUMPDEST DUP2 CALLDATALOAD PUSH1 0x1 PUSH1 0x1 PUSH1 0xA0 SHL SUB DUP2 AND DUP2 EQ PUSH2 0x8B7 JUMPI PUSH1 0x0 DUP1 REVERT JUMPDEST SWAP4 SWAP3 POP POP POP JUMP JUMPDEST PUSH1 0x0 PUSH1 0x20 DUP1 DUP4 MSTORE DUP4 MLOAD PUSH1 0x60 DUP3 DUP6 ADD MSTORE PUSH2 0x8DA PUSH1 0x80 DUP6 ADD DUP3 PUSH2 0x76D JUMP JUMPDEST DUP6 DUP4 ADD MLOAD ISZERO ISZERO PUSH1 0x40 DUP7 DUP2 ADD SWAP2 SWAP1 SWAP2 MSTORE DUP7 ADD MLOAD DUP6 DUP3 SUB PUSH1 0x1F NOT ADD PUSH1 0x60 DUP8 ADD MSTORE DUP1 MLOAD DUP1 DUP4 MSTORE SWAP1 DUP5 ADD SWAP3 POP PUSH1 0x0 SWAP2 DUP5 ADD SWAP1 JUMPDEST DUP1 DUP4 LT ISZERO PUSH2 0x929 JUMPI DUP4 MLOAD DUP3 MSTORE SWAP3 DUP5 ADD SWAP3 PUSH1 0x1 SWAP3 SWAP1 SWAP3 ADD SWAP2 SWAP1 DUP5 ADD SWAP1 PUSH2 0x909 JUMP JUMPDEST POP SWAP7 SWAP6 POP POP POP POP POP POP JUMP JUMPDEST PUSH1 0x1 DUP2 DUP2 SHR SWAP1 DUP3 AND DUP1 PUSH2 0x948 JUMPI PUSH1 0x7F DUP3 AND SWAP2 POP JUMPDEST PUSH1 0x20 DUP3 LT DUP2 EQ ISZERO PUSH2 0x969 JUMPI PUSH4 0x4E487B71 PUSH1 0xE0 SHL PUSH1 0x0 MSTORE PUSH1 0x22 PUSH1 0x4 MSTORE PUSH1 0x24 PUSH1 0x0 REVERT JUMPDEST POP SWAP2 SWAP1 POP JUMP JUMPDEST PUSH1 0x20 DUP2 MSTORE PUSH1 0x0 PUSH2 0x8B7 PUSH1 0x20 DUP4 ADD DUP5 PUSH2 0x76D JUMP JUMPDEST PUSH1 0x40 DUP2 MSTORE PUSH1 0x0 PUSH2 0x995 PUSH1 0x40 DUP4 ADD DUP6 PUSH2 0x76D JUMP JUMPDEST SWAP1 POP DUP3 PUSH1 0x20 DUP4 ADD MSTORE SWAP4 SWAP3 POP POP POP JUMP INVALID LOG2 PUSH5 0x6970667358 0x22 SLT KECCAK256 SIGNEXTEND CALLER CALLDATALOAD EXP 0xBC 0xBE ADDRESS EXTCODECOPY 0xF CHAINID 0xD2 0xFB DUP10 SWAP13 PUSH3 0x28CCB7 0xC8 0xA5 0xD0 0xD1 SWAP1 LOG1 PUSH27 0x145C39C94BBD164736F6C63430008090033000000000000000000 "},"methodIdentifiers":{"changeAccess(uint256,uint8)":"476672b6","checkAccess(uint256)":"6e583cac","createFile()":"351355c0","getFile(uint256)":"2bfda313","getUser(address)":"6f77926b","owner()":"8da5cb5b"}}}}}