{
  "_format": "hh-sol-artifact-1",
  "contractName": "Pixie",
  "sourceName": "contracts/Pixie.sol",
  "abi": [
    {
      "inputs": [],
      "stateMutability": "payable",
      "type": "constructor"
    },
    {
      "inputs": [
        {
          "internalType": "uint256",
          "name": "_id",
          "type": "uint256"
        },
        {
          "internalType": "enum Access",
          "name": "_access",
          "type": "uint8"
        }
      ],
      "name": "changeAccess",
      "outputs": [],
      "stateMutability": "nonpayable",
      "type": "function"
    },
    {
      "inputs": [
        {
          "internalType": "uint256",
          "name": "_id",
          "type": "uint256"
        }
      ],
      "name": "checkAccess",
      "outputs": [
        {
          "internalType": "enum Access",
          "name": "",
          "type": "uint8"
        }
      ],
      "stateMutability": "view",
      "type": "function"
    },
    {
      "inputs": [],
      "name": "createFile",
      "outputs": [],
      "stateMutability": "nonpayable",
      "type": "function"
    },
    {
      "inputs": [
        {
          "internalType": "uint256",
          "name": "_id",
          "type": "uint256"
        }
      ],
      "name": "getFile",
      "outputs": [
        {
          "components": [
            {
              "internalType": "uint256",
              "name": "id",
              "type": "uint256"
            },
            {
              "internalType": "address",
              "name": "owner",
              "type": "address"
            },
            {
              "internalType": "string",
              "name": "content",
              "type": "string"
            },
            {
              "internalType": "enum Access",
              "name": "access",
              "type": "uint8"
            }
          ],
          "internalType": "struct Pixie.File",
          "name": "",
          "type": "tuple"
        }
      ],
      "stateMutability": "view",
      "type": "function"
    },
    {
      "inputs": [
        {
          "internalType": "address",
          "name": "_user",
          "type": "address"
        }
      ],
      "name": "getUser",
      "outputs": [
        {
          "components": [
            {
              "internalType": "string",
              "name": "name",
              "type": "string"
            },
            {
              "internalType": "bool",
              "name": "exists",
              "type": "bool"
            },
            {
              "internalType": "uint256[]",
              "name": "myFiles",
              "type": "uint256[]"
            }
          ],
          "internalType": "struct Pixie.User",
          "name": "",
          "type": "tuple"
        }
      ],
      "stateMutability": "view",
      "type": "function"
    },
    {
      "inputs": [],
      "name": "owner",
      "outputs": [
        {
          "internalType": "address payable",
          "name": "",
          "type": "address"
        }
      ],
      "stateMutability": "view",
      "type": "function"
    }
  ],
  "bytecode": "0x60008054336001600160a01b031990911617905560c0604052601c60809081527f436f6e7472616374206465706c6f7965642c206f776e6572207365740000000060a0526100579061005c602090811b6105ca17901c565b61011c565b6100a38160405160240161007091906100c7565b60408051601f198184030181529190526020810180516001600160e01b0390811663104c13eb60e21b179091526100a616565b50565b80516a636f6e736f6c652e6c6f67602083016000808483855afa5050505050565b600060208083528351808285015260005b818110156100f4578581018301518582016040015282016100d8565b81811115610106576000604083870101525b50601f01601f1916929092016040019392505050565b6109da8061012b6000396000f3fe608060405234801561001057600080fd5b50600436106100625760003560e01c80632bfda31314610067578063351355c014610090578063476672b61461009a5780636e583cac146100ad5780636f77926b146100e05780638da5cb5b14610100575b600080fd5b61007a610075366004610754565b61012b565b60405161008791906107f2565b60405180910390f35b610098610233565b005b6100986100a8366004610846565b6103dc565b6100d36100bb366004610754565b60009081526002602052604090206003015460ff1690565b604051610087919061087a565b6100f36100ee36600461088e565b61048f565b60405161008791906108be565b600054610113906001600160a01b031681565b6040516001600160a01b039091168152602001610087565b61013361067a565b60008281526002602081815260409283902083516080810185528154815260018201546001600160a01b0316928101929092529182018054919384019161017990610934565b80601f01602080910402602001604051908101604052809291908181526020018280546101a590610934565b80156101f25780601f106101c7576101008083540402835291602001916101f2565b820191906000526020600020905b8154815290600101906020018083116101d557829003601f168201915b5050509183525050600382015460209091019060ff166002811115610219576102196107ba565b600281111561022a5761022a6107ba565b90525092915050565b3360009081526003602052604090206001015460ff16156102915760405162461bcd60e51b8152602060048201526013602482015272155cd95c88111bd95cc81b9bdd08195e1a5cdd606a1b60448201526064015b60405180910390fd5b600061029c60015490565b90506102ac600180546001019055565b60006040518060800160405280838152602001336001600160a01b031681526020016040518060400160405280600381526020016261626360e81b815250815260200160006002811115610302576103026107ba565b81525090506103356040518060400160405280600c81526020016b199a5b194818dc99585d195960a21b81525083610610565b60008281526002602081815260409283902084518155848201516001820180546001600160a01b0319166001600160a01b03909216919091179055928401518051859493610388939085019201906106bb565b50606082015160038201805460ff191660018360028111156103ac576103ac6107ba565b02179055505033600090815260036020908152604082206002018054600181018255908352912001929092555050565b60008281526002602052604090206001015482906001600160a01b031633146104525760405162461bcd60e51b815260206004820152602260248201527f596f7520617265206e6f7420746865206f776e6572206f6620746869732066696044820152616c6560f01b6064820152608401610288565b60008381526002602081905260409091206003018054849260ff19909116906001908490811115610485576104856107ba565b0217905550505050565b604080516060808201835280825260006020830152918101919091526001600160a01b038216600090815260036020526040908190208151606081019092528054829082906104dd90610934565b80601f016020809104026020016040519081016040528092919081815260200182805461050990610934565b80156105565780601f1061052b57610100808354040283529160200191610556565b820191906000526020600020905b81548152906001019060200180831161053957829003601f168201915b5050509183525050600182015460ff16151560208083019190915260028301805460408051828502810185018252828152940193928301828280156105ba57602002820191906000526020600020905b8154815260200190600101908083116105a6575b5050505050815250509050919050565b61060d816040516024016105de919061096f565b60408051601f198184030181529190526020810180516001600160e01b031663104c13eb60e21b179052610659565b50565b6106558282604051602401610626929190610982565b60408051601f198184030181529190526020810180516001600160e01b0316632d839cb360e21b179052610659565b5050565b80516a636f6e736f6c652e6c6f67602083016000808483855afa5050505050565b60405180608001604052806000815260200160006001600160a01b0316815260200160608152602001600060028111156106b6576106b66107ba565b905290565b8280546106c790610934565b90600052602060002090601f0160209004810192826106e9576000855561072f565b82601f1061070257805160ff191683800117855561072f565b8280016001018555821561072f579182015b8281111561072f578251825591602001919060010190610714565b5061073b92915061073f565b5090565b5b8082111561073b5760008155600101610740565b60006020828403121561076657600080fd5b5035919050565b6000815180845260005b8181101561079357602081850181015186830182015201610777565b818111156107a5576000602083870101525b50601f01601f19169290920160200192915050565b634e487b7160e01b600052602160045260246000fd5b600381106107ee57634e487b7160e01b600052602160045260246000fd5b9052565b602081528151602082015260018060a01b036020830151166040820152600060408301516080606084015261082a60a084018261076d565b9050606084015161083e60808501826107d0565b509392505050565b6000806040838503121561085957600080fd5b8235915060208301356003811061086f57600080fd5b809150509250929050565b6020810161088882846107d0565b92915050565b6000602082840312156108a057600080fd5b81356001600160a01b03811681146108b757600080fd5b9392505050565b6000602080835283516060828501526108da608085018261076d565b858301511515604086810191909152860151858203601f19016060870152805180835290840192506000918401905b808310156109295783518252928401926001929092019190840190610909565b509695505050505050565b600181811c9082168061094857607f821691505b6020821081141561096957634e487b7160e01b600052602260045260246000fd5b50919050565b6020815260006108b7602083018461076d565b604081526000610995604083018561076d565b9050826020830152939250505056fea26469706673582212200b33350abcbe303c0f46d2fb899c6228ccb7c8a5d0d190a17a0145c39c94bbd164736f6c63430008090033",
  "linkReferences": {},
  "deployedLinkReferences": {}
}