{
  "_format": "hh-sol-artifact-1",
  "contractName": "Pixie",
  "sourceName": "contracts/Pixie.sol",
  "abi": [
    {
      "inputs": [],
      "stateMutability": "payable",
      "type": "constructor"
    },
    {
      "inputs": [],
      "name": "createFile",
      "outputs": [],
      "stateMutability": "nonpayable",
      "type": "function"
    },
    {
      "inputs": [],
      "name": "getCurrentFileId",
      "outputs": [
        {
          "internalType": "uint256",
          "name": "",
          "type": "uint256"
        }
      ],
      "stateMutability": "view",
      "type": "function"
    },
    {
      "inputs": [],
      "name": "getFiles",
      "outputs": [
        {
          "components": [
            {
              "internalType": "uint256",
              "name": "id",
              "type": "uint256"
            },
            {
              "internalType": "address",
              "name": "owner",
              "type": "address"
            }
          ],
          "internalType": "struct Pixie.File[]",
          "name": "",
          "type": "tuple[]"
        }
      ],
      "stateMutability": "view",
      "type": "function"
    },
    {
      "inputs": [],
      "name": "owner",
      "outputs": [
        {
          "internalType": "address payable",
          "name": "",
          "type": "address"
        }
      ],
      "stateMutability": "view",
      "type": "function"
    }
  ],
  "bytecode": "0x60008054336001600160a01b031990911617905560c0604052601c60809081527f436f6e7472616374206465706c6f7965642c206f776e6572207365740000000060a0526100579061005c602090811b61031a17901c565b61011c565b6100a38160405160240161007091906100c7565b60408051601f198184030181529190526020810180516001600160e01b0390811663104c13eb60e21b179091526100a616565b50565b80516a636f6e736f6c652e6c6f67602083016000808483855afa5050505050565b600060208083528351808285015260005b818110156100f4578581018301518582016040015282016100d8565b81811115610106576000604083870101525b50601f01601f1916929092016040019392505050565b61052e8061012b6000396000f3fe608060405234801561001057600080fd5b506004361061004c5760003560e01c80632da96d7314610051578063351355c01461006f5780638da5cb5b14610079578063c0ec5b33146100a4575b600080fd5b6100596100ba565b60405161006691906103c2565b60405180910390f35b610077610258565b005b60005461008c906001600160a01b031681565b6040516001600160a01b039091168152602001610066565b6100ac61030a565b604051908152602001610066565b3360009081526003602052604090205460609060ff166101165760405162461bcd60e51b8152602060048201526013602482015272155cd95c88111bd95cc81b9bdd08195e1a5cdd606a1b604482015260640160405180910390fd5b3360008181526003602052604081206001015467ffffffffffffffff8111156101415761014161041a565b60405190808252806020026020018201604052801561018657816020015b604080518082019091526000808252602082015281526020019060019003908161015f5790505b50905060005b6001600160a01b038316600090815260036020526040902060010154811015610251576001600160a01b038316600090815260036020526040812060010180546002929190849081106101e1576101e1610430565b600091825260208083209091015483528281019390935260409182019020815180830190925280548252600101546001600160a01b031691810191909152825183908390811061023357610233610430565b6020026020010181905250808061024990610446565b91505061018c565b5091505090565b600061026360015490565b9050610273600180546001019055565b604080518082018252828152336020808301828152600086815260028352858120855181559151600192830180546001600160a01b0319166001600160a01b03909216919091179055928352600382528483208101805491820181558352918190209091018490558251808401909352600c83526b03732bb9034ba32b69034b2160a51b90830152906103069083610360565b5050565b600061031560015490565b905090565b61035d8160405160240161032e91906104bc565b60408051601f198184030181529190526020810180516001600160e01b031663104c13eb60e21b1790526103a1565b50565b61030682826040516024016103769291906104d6565b60408051601f198184030181529190526020810180516001600160e01b0316632d839cb360e21b1790525b80516a636f6e736f6c652e6c6f67602083016000808483855afa5050505050565b602080825282518282018190526000919060409081850190868401855b8281101561040d578151805185528601516001600160a01b03168685015292840192908501906001016103df565b5091979650505050505050565b634e487b7160e01b600052604160045260246000fd5b634e487b7160e01b600052603260045260246000fd5b600060001982141561046857634e487b7160e01b600052601160045260246000fd5b5060010190565b6000815180845260005b8181101561049557602081850181015186830182015201610479565b818111156104a7576000602083870101525b50601f01601f19169290920160200192915050565b6020815260006104cf602083018461046f565b9392505050565b6040815260006104e9604083018561046f565b9050826020830152939250505056fea264697066735822122059d76d48576675cce5e1cb42ae68a7e6a42f82d1368d53d0cdbd89327e77b5d664736f6c63430008090033",
  "linkReferences": {},
  "deployedLinkReferences": {}
}