{
  "_format": "hh-sol-artifact-1",
  "contractName": "Pixie",
  "sourceName": "contracts/Pixie.sol",
  "abi": [
    {
      "inputs": [],
      "stateMutability": "payable",
      "type": "constructor"
    },
    {
      "inputs": [
        {
          "internalType": "uint256",
          "name": "_id",
          "type": "uint256"
        },
        {
          "internalType": "enum Access",
          "name": "_access",
          "type": "uint8"
        }
      ],
      "name": "changeAccess",
      "outputs": [],
      "stateMutability": "nonpayable",
      "type": "function"
    },
    {
      "inputs": [
        {
          "internalType": "uint256",
          "name": "_id",
          "type": "uint256"
        }
      ],
      "name": "checkAccess",
      "outputs": [
        {
          "internalType": "enum Access",
          "name": "",
          "type": "uint8"
        }
      ],
      "stateMutability": "view",
      "type": "function"
    },
    {
      "inputs": [],
      "name": "createFile",
      "outputs": [],
      "stateMutability": "nonpayable",
      "type": "function"
    },
    {
      "inputs": [],
      "name": "createUser",
      "outputs": [
        {
          "components": [
            {
              "internalType": "string",
              "name": "name",
              "type": "string"
            },
            {
              "internalType": "bool",
              "name": "exists",
              "type": "bool"
            },
            {
              "internalType": "uint256[]",
              "name": "myFiles",
              "type": "uint256[]"
            }
          ],
          "internalType": "struct Pixie.User",
          "name": "",
          "type": "tuple"
        }
      ],
      "stateMutability": "nonpayable",
      "type": "function"
    },
    {
      "inputs": [
        {
          "internalType": "uint256",
          "name": "_id",
          "type": "uint256"
        }
      ],
      "name": "getFile",
      "outputs": [
        {
          "components": [
            {
              "internalType": "uint256",
              "name": "id",
              "type": "uint256"
            },
            {
              "internalType": "address",
              "name": "owner",
              "type": "address"
            },
            {
              "internalType": "string",
              "name": "content",
              "type": "string"
            },
            {
              "internalType": "enum Access",
              "name": "access",
              "type": "uint8"
            }
          ],
          "internalType": "struct Pixie.File",
          "name": "",
          "type": "tuple"
        }
      ],
      "stateMutability": "view",
      "type": "function"
    },
    {
      "inputs": [
        {
          "internalType": "address",
          "name": "_user",
          "type": "address"
        }
      ],
      "name": "getUser",
      "outputs": [
        {
          "components": [
            {
              "internalType": "string",
              "name": "name",
              "type": "string"
            },
            {
              "internalType": "bool",
              "name": "exists",
              "type": "bool"
            },
            {
              "internalType": "uint256[]",
              "name": "myFiles",
              "type": "uint256[]"
            }
          ],
          "internalType": "struct Pixie.User",
          "name": "",
          "type": "tuple"
        }
      ],
      "stateMutability": "view",
      "type": "function"
    },
    {
      "inputs": [],
      "name": "owner",
      "outputs": [
        {
          "internalType": "address payable",
          "name": "",
          "type": "address"
        }
      ],
      "stateMutability": "view",
      "type": "function"
    }
  ],
  "bytecode": "0x60008054336001600160a01b031990911617905560c0604052601c60809081527f436f6e7472616374206465706c6f7965642c206f776e6572207365740000000060a0526100579061005c602090811b6106fb17901c565b61011c565b6100a38160405160240161007091906100c7565b60408051601f198184030181529190526020810180516001600160e01b0390811663104c13eb60e21b179091526100a616565b50565b80516a636f6e736f6c652e6c6f67602083016000808483855afa5050505050565b600060208083528351808285015260005b818110156100f4578581018301518582016040015282016100d8565b81811115610106576000604083870101525b50601f01601f1916929092016040019392505050565b610b458061012b6000396000f3fe608060405234801561001057600080fd5b506004361061007d5760003560e01c8063476672b61161005b578063476672b6146100ca5780636e583cac146100dd5780636f77926b146101105780638da5cb5b1461012357600080fd5b806325ad91ce146100825780632bfda313146100a0578063351355c0146100c0575b600080fd5b61008a61014e565b604051610097919061090c565b60405180910390f35b6100b36100ae366004610982565b610262565b60405161009791906109d3565b6100c861036a565b005b6100c86100d8366004610a27565b61050d565b6101036100eb366004610982565b60009081526002602052604090206003015460ff1690565b6040516100979190610a5b565b61008a61011e366004610a6f565b6105c0565b600054610136906001600160a01b031681565b6040516001600160a01b039091168152602001610097565b604080516060808201835280825260006020830152918101919091523360009081526003602052604090206001015460ff16156101c75760405162461bcd60e51b8152602060048201526012602482015271155cd95c88105b1c9958591e48195e1a5cdd60721b60448201526064015b60405180910390fd5b604080516060808201835280825260006020808401828152848601939093528451808601865260088152673a32b9ba2ab9b2b960c11b81830152845260019092523381526003825292909220815180519293849361022892849201906107ab565b5060208281015160018301805460ff191691151591909117905560408301518051610259926002850192019061082f565b50919392505050565b61026a610869565b60008281526002602081815260409283902083516080810185528154815260018201546001600160a01b031692810192909252918201805491938401916102b090610a9f565b80601f01602080910402602001604051908101604052809291908181526020018280546102dc90610a9f565b80156103295780601f106102fe57610100808354040283529160200191610329565b820191906000526020600020905b81548152906001019060200180831161030c57829003601f168201915b5050509183525050600382015460209091019060ff1660028111156103505761035061099b565b60028111156103615761036161099b565b90525092915050565b3360009081526003602052604090206001015460ff166103c25760405162461bcd60e51b8152602060048201526013602482015272155cd95c88111bd95cc81b9bdd08195e1a5cdd606a1b60448201526064016101be565b60006103cd60015490565b90506103dd600180546001019055565b60006040518060800160405280838152602001336001600160a01b031681526020016040518060400160405280600381526020016261626360e81b8152508152602001600060028111156104335761043361099b565b81525090506104666040518060400160405280600c81526020016b199a5b194818dc99585d195960a21b81525083610741565b60008281526002602081815260409283902084518155848201516001820180546001600160a01b0319166001600160a01b039092169190911790559284015180518594936104b9939085019201906107ab565b50606082015160038201805460ff191660018360028111156104dd576104dd61099b565b02179055505033600090815260036020908152604082206002018054600181018255908352912001929092555050565b60008281526002602052604090206001015482906001600160a01b031633146105835760405162461bcd60e51b815260206004820152602260248201527f596f7520617265206e6f7420746865206f776e6572206f6620746869732066696044820152616c6560f01b60648201526084016101be565b60008381526002602081905260409091206003018054849260ff199091169060019084908111156105b6576105b661099b565b0217905550505050565b604080516060808201835280825260006020830152918101919091526001600160a01b0382166000908152600360205260409081902081516060810190925280548290829061060e90610a9f565b80601f016020809104026020016040519081016040528092919081815260200182805461063a90610a9f565b80156106875780601f1061065c57610100808354040283529160200191610687565b820191906000526020600020905b81548152906001019060200180831161066a57829003601f168201915b5050509183525050600182015460ff16151560208083019190915260028301805460408051828502810185018252828152940193928301828280156106eb57602002820191906000526020600020905b8154815260200190600101908083116106d7575b5050505050815250509050919050565b61073e8160405160240161070f9190610ada565b60408051601f198184030181529190526020810180516001600160e01b031663104c13eb60e21b17905261078a565b50565b6107868282604051602401610757929190610aed565b60408051601f198184030181529190526020810180516001600160e01b0316632d839cb360e21b17905261078a565b5050565b80516a636f6e736f6c652e6c6f67602083016000808483855afa5050505050565b8280546107b790610a9f565b90600052602060002090601f0160209004810192826107d9576000855561081f565b82601f106107f257805160ff191683800117855561081f565b8280016001018555821561081f579182015b8281111561081f578251825591602001919060010190610804565b5061082b9291506108aa565b5090565b82805482825590600052602060002090810192821561081f579160200282018281111561081f578251825591602001919060010190610804565b60405180608001604052806000815260200160006001600160a01b0316815260200160608152602001600060028111156108a5576108a561099b565b905290565b5b8082111561082b57600081556001016108ab565b6000815180845260005b818110156108e5576020818501810151868301820152016108c9565b818111156108f7576000602083870101525b50601f01601f19169290920160200192915050565b60006020808352835160608285015261092860808501826108bf565b858301511515604086810191909152860151858203601f19016060870152805180835290840192506000918401905b808310156109775783518252928401926001929092019190840190610957565b509695505050505050565b60006020828403121561099457600080fd5b5035919050565b634e487b7160e01b600052602160045260246000fd5b600381106109cf57634e487b7160e01b600052602160045260246000fd5b9052565b602081528151602082015260018060a01b0360208301511660408201526000604083015160806060840152610a0b60a08401826108bf565b90506060840151610a1f60808501826109b1565b509392505050565b60008060408385031215610a3a57600080fd5b82359150602083013560038110610a5057600080fd5b809150509250929050565b60208101610a6982846109b1565b92915050565b600060208284031215610a8157600080fd5b81356001600160a01b0381168114610a9857600080fd5b9392505050565b600181811c90821680610ab357607f821691505b60208210811415610ad457634e487b7160e01b600052602260045260246000fd5b50919050565b602081526000610a9860208301846108bf565b604081526000610b0060408301856108bf565b9050826020830152939250505056fea264697066735822122028ce79681a2799a5e81f6f60d316ff9f05408e33a72167a817f26010160a590764736f6c63430008090033",
  "linkReferences": {},
  "deployedLinkReferences": {}
}