{
  "_format": "hh-sol-artifact-1",
  "contractName": "Pixie",
  "sourceName": "contracts/Pixie.sol",
  "abi": [
    {
      "inputs": [],
      "stateMutability": "payable",
      "type": "constructor"
    },
    {
      "inputs": [
        {
          "internalType": "uint256",
          "name": "_id",
          "type": "uint256"
        },
        {
          "internalType": "enum Access",
          "name": "_access",
          "type": "uint8"
        }
      ],
      "name": "changeAccess",
      "outputs": [],
      "stateMutability": "nonpayable",
      "type": "function"
    },
    {
      "inputs": [
        {
          "internalType": "uint256",
          "name": "_id",
          "type": "uint256"
        }
      ],
      "name": "checkAccess",
      "outputs": [
        {
          "internalType": "enum Access",
          "name": "",
          "type": "uint8"
        }
      ],
      "stateMutability": "view",
      "type": "function"
    },
    {
      "inputs": [
        {
          "internalType": "string",
          "name": "cid",
          "type": "string"
        }
      ],
      "name": "createFile",
      "outputs": [
        {
          "internalType": "uint256",
          "name": "",
          "type": "uint256"
        }
      ],
      "stateMutability": "nonpayable",
      "type": "function"
    },
    {
      "inputs": [],
      "name": "createUser",
      "outputs": [],
      "stateMutability": "nonpayable",
      "type": "function"
    },
    {
      "inputs": [],
      "name": "getFiles",
      "outputs": [
        {
          "components": [
            {
              "internalType": "uint256",
              "name": "id",
              "type": "uint256"
            },
            {
              "internalType": "address",
              "name": "owner",
              "type": "address"
            },
            {
              "internalType": "string",
              "name": "content",
              "type": "string"
            },
            {
              "internalType": "enum Access",
              "name": "access",
              "type": "uint8"
            }
          ],
          "internalType": "struct Pixie.File[]",
          "name": "",
          "type": "tuple[]"
        }
      ],
      "stateMutability": "view",
      "type": "function"
    },
    {
      "inputs": [
        {
          "internalType": "address",
          "name": "_user",
          "type": "address"
        }
      ],
      "name": "getUser",
      "outputs": [
        {
          "components": [
            {
              "internalType": "string",
              "name": "name",
              "type": "string"
            },
            {
              "internalType": "bool",
              "name": "exists",
              "type": "bool"
            },
            {
              "internalType": "uint256[]",
              "name": "myFiles",
              "type": "uint256[]"
            }
          ],
          "internalType": "struct Pixie.User",
          "name": "",
          "type": "tuple"
        }
      ],
      "stateMutability": "view",
      "type": "function"
    },
    {
      "inputs": [],
      "name": "owner",
      "outputs": [
        {
          "internalType": "address payable",
          "name": "",
          "type": "address"
        }
      ],
      "stateMutability": "view",
      "type": "function"
    }
  ],
  "bytecode": "0x60008054336001600160a01b031990911617905560c0604052601c60809081527f436f6e7472616374206465706c6f7965642c206f776e6572207365740000000060a0526100579061005c602090811b61083317901c565b61011c565b6100a38160405160240161007091906100c7565b60408051601f198184030181529190526020810180516001600160e01b0390811663104c13eb60e21b179091526100a616565b50565b80516a636f6e736f6c652e6c6f67602083016000808483855afa5050505050565b600060208083528351808285015260005b818110156100f4578581018301518582016040015282016100d8565b81811115610106576000604083870101525b50601f01601f1916929092016040019392505050565b610dd08061012b6000396000f3fe608060405234801561001057600080fd5b506004361061007d5760003560e01c80634dfdc4fb1161005b5780634dfdc4fb146100bd5780636e583cac146100de5780636f77926b146101115780638da5cb5b1461013157600080fd5b806325ad91ce146100825780632da96d731461008c578063476672b6146100aa575b600080fd5b61008a61015c565b005b610094610251565b6040516100a19190610a7c565b60405180910390f35b61008a6100b8366004610b1d565b6104aa565b6100d06100cb366004610b67565b61055d565b6040519081526020016100a1565b6101046100ec366004610c18565b60009081526002602052604090206003015460ff1690565b6040516100a19190610c31565b61012461011f366004610c45565b6106f8565b6040516100a19190610c75565b600054610144906001600160a01b031681565b6040516001600160a01b0390911681526020016100a1565b3360009081526003602052604090206001015460ff16156101b95760405162461bcd60e51b8152602060048201526012602482015271155cd95c88105b1c9958591e48195e1a5cdd60721b60448201526064015b60405180910390fd5b604080516060808201835280825260006020808401828152848601939093528451808601865260088152673a32b9ba2ab9b2b960c11b81830152845260019092523381526003825292909220815180519293849361021a92849201906108e3565b5060208281015160018301805460ff19169115159190911790556040830151805161024b9260028501920190610967565b50505050565b3360009081526003602052604090206001015460609060ff166102ac5760405162461bcd60e51b8152602060048201526013602482015272155cd95c88111bd95cc81b9bdd08195e1a5cdd606a1b60448201526064016101b0565b3360008181526003602052604081206002015467ffffffffffffffff8111156102d7576102d7610b51565b60405190808252806020026020018201604052801561031057816020015b6102fd6109a1565b8152602001906001900390816102f55790505b50905060005b6001600160a01b0383166000908152600360205260409020600201548110156104a3576001600160a01b0383166000908152600360205260408120600290810180549192918490811061036b5761036b610ceb565b60009182526020808320909101548352828101939093526040918201902081516080810183528154815260018201546001600160a01b03169381019390935260028101805491928401916103be90610d01565b80601f01602080910402602001604051908101604052809291908181526020018280546103ea90610d01565b80156104375780601f1061040c57610100808354040283529160200191610437565b820191906000526020600020905b81548152906001019060200180831161041a57829003601f168201915b5050509183525050600382015460209091019060ff16600281111561045e5761045e610a44565b600281111561046f5761046f610a44565b8152505082828151811061048557610485610ceb565b6020026020010181905250808061049b90610d3c565b915050610316565b5091505090565b60008281526002602052604090206001015482906001600160a01b031633146105205760405162461bcd60e51b815260206004820152602260248201527f596f7520617265206e6f7420746865206f776e6572206f6620746869732066696044820152616c6560f01b60648201526084016101b0565b60008381526002602081905260409091206003018054849260ff1990911690600190849081111561055357610553610a44565b0217905550505050565b3360009081526003602052604081206001015460ff166105b55760405162461bcd60e51b8152602060048201526013602482015272155cd95c88111bd95cc81b9bdd08195e1a5cdd606a1b60448201526064016101b0565b60006105c060015490565b90506105d0600180546001019055565b6040805160808101825282815233602080830191909152818301869052600060608301528251808401909352600c83526b199a5b194818dc99585d195960a21b908301529061061f9083610879565b60008281526002602081815260409283902084518155848201516001820180546001600160a01b0319166001600160a01b03909216919091179055928401518051859493610672939085019201906108e3565b50606082015160038201805460ff1916600183600281111561069657610696610a44565b0217905550503360009081526003602090815260408083206002018054600181018255908452928290209092018590558151808301909252600c82526b03732bb9034ba32b69034b2160a51b908201526106f1915083610879565b5092915050565b604080516060808201835280825260006020830152918101919091526001600160a01b0382166000908152600360205260409081902081516060810190925280548290829061074690610d01565b80601f016020809104026020016040519081016040528092919081815260200182805461077290610d01565b80156107bf5780601f10610794576101008083540402835291602001916107bf565b820191906000526020600020905b8154815290600101906020018083116107a257829003601f168201915b5050509183525050600182015460ff161515602080830191909152600283018054604080518285028101850182528281529401939283018282801561082357602002820191906000526020600020905b81548152602001906001019080831161080f575b5050505050815250509050919050565b610876816040516024016108479190610d65565b60408051601f198184030181529190526020810180516001600160e01b031663104c13eb60e21b1790526108c2565b50565b6108be828260405160240161088f929190610d78565b60408051601f198184030181529190526020810180516001600160e01b0316632d839cb360e21b1790526108c2565b5050565b80516a636f6e736f6c652e6c6f67602083016000808483855afa5050505050565b8280546108ef90610d01565b90600052602060002090601f0160209004810192826109115760008555610957565b82601f1061092a57805160ff1916838001178555610957565b82800160010185558215610957579182015b8281111561095757825182559160200191906001019061093c565b506109639291506109e2565b5090565b828054828255906000526020600020908101928215610957579160200282018281111561095757825182559160200191906001019061093c565b60405180608001604052806000815260200160006001600160a01b0316815260200160608152602001600060028111156109dd576109dd610a44565b905290565b5b8082111561096357600081556001016109e3565b6000815180845260005b81811015610a1d57602081850181015186830182015201610a01565b81811115610a2f576000602083870101525b50601f01601f19169290920160200192915050565b634e487b7160e01b600052602160045260246000fd5b60038110610a7857634e487b7160e01b600052602160045260246000fd5b9052565b60006020808301818452808551808352604092508286019150828160051b87010184880160005b83811015610b0f57888303603f19018552815180518452878101516001600160a01b03168885015286810151608088860181905290610ae4828701826109f7565b9150506060808301519250610afb81870184610a5a565b509588019593505090860190600101610aa3565b509098975050505050505050565b60008060408385031215610b3057600080fd5b82359150602083013560038110610b4657600080fd5b809150509250929050565b634e487b7160e01b600052604160045260246000fd5b600060208284031215610b7957600080fd5b813567ffffffffffffffff80821115610b9157600080fd5b818401915084601f830112610ba557600080fd5b813581811115610bb757610bb7610b51565b604051601f8201601f19908116603f01168101908382118183101715610bdf57610bdf610b51565b81604052828152876020848701011115610bf857600080fd5b826020860160208301376000928101602001929092525095945050505050565b600060208284031215610c2a57600080fd5b5035919050565b60208101610c3f8284610a5a565b92915050565b600060208284031215610c5757600080fd5b81356001600160a01b0381168114610c6e57600080fd5b9392505050565b600060208083528351606082850152610c9160808501826109f7565b858301511515604086810191909152860151858203601f19016060870152805180835290840192506000918401905b80831015610ce05783518252928401926001929092019190840190610cc0565b509695505050505050565b634e487b7160e01b600052603260045260246000fd5b600181811c90821680610d1557607f821691505b60208210811415610d3657634e487b7160e01b600052602260045260246000fd5b50919050565b6000600019821415610d5e57634e487b7160e01b600052601160045260246000fd5b5060010190565b602081526000610c6e60208301846109f7565b604081526000610d8b60408301856109f7565b9050826020830152939250505056fea26469706673582212203e73343ced1b487763fa000d0167461370f0bd018b7a22880d079b338886141664736f6c63430008090033",
  "linkReferences": {},
  "deployedLinkReferences": {}
}