{
  "_format": "hh-sol-artifact-1",
  "contractName": "Pixie",
  "sourceName": "contracts/Pixie.sol",
  "abi": [
    {
      "inputs": [],
      "stateMutability": "payable",
      "type": "constructor"
    },
    {
      "inputs": [
        {
          "internalType": "uint256",
          "name": "_id",
          "type": "uint256"
        },
        {
          "internalType": "enum Access",
          "name": "_access",
          "type": "uint8"
        }
      ],
      "name": "changeAccess",
      "outputs": [],
      "stateMutability": "nonpayable",
      "type": "function"
    },
    {
      "inputs": [
        {
          "internalType": "uint256",
          "name": "_id",
          "type": "uint256"
        }
      ],
      "name": "checkAccess",
      "outputs": [
        {
          "internalType": "enum Access",
          "name": "",
          "type": "uint8"
        }
      ],
      "stateMutability": "view",
      "type": "function"
    },
    {
      "inputs": [],
      "name": "createFile",
      "outputs": [
        {
          "internalType": "uint256",
          "name": "",
          "type": "uint256"
        }
      ],
      "stateMutability": "nonpayable",
      "type": "function"
    },
    {
      "inputs": [],
      "name": "createUser",
      "outputs": [],
      "stateMutability": "nonpayable",
      "type": "function"
    },
    {
      "inputs": [],
      "name": "getFiles",
      "outputs": [
        {
          "components": [
            {
              "internalType": "uint256",
              "name": "id",
              "type": "uint256"
            },
            {
              "internalType": "address",
              "name": "owner",
              "type": "address"
            },
            {
              "internalType": "string",
              "name": "content",
              "type": "string"
            },
            {
              "internalType": "enum Access",
              "name": "access",
              "type": "uint8"
            }
          ],
          "internalType": "struct Pixie.File[]",
          "name": "",
          "type": "tuple[]"
        }
      ],
      "stateMutability": "view",
      "type": "function"
    },
    {
      "inputs": [
        {
          "internalType": "address",
          "name": "_user",
          "type": "address"
        }
      ],
      "name": "getUser",
      "outputs": [
        {
          "components": [
            {
              "internalType": "string",
              "name": "name",
              "type": "string"
            },
            {
              "internalType": "bool",
              "name": "exists",
              "type": "bool"
            },
            {
              "internalType": "uint256[]",
              "name": "myFiles",
              "type": "uint256[]"
            }
          ],
          "internalType": "struct Pixie.User",
          "name": "",
          "type": "tuple"
        }
      ],
      "stateMutability": "view",
      "type": "function"
    },
    {
      "inputs": [],
      "name": "owner",
      "outputs": [
        {
          "internalType": "address payable",
          "name": "",
          "type": "address"
        }
      ],
      "stateMutability": "view",
      "type": "function"
    }
  ],
  "bytecode": "0x60008054336001600160a01b031990911617905560c0604052601c60809081527f436f6e7472616374206465706c6f7965642c206f776e6572207365740000000060a0526100579061005c602090811b61086117901c565b61011c565b6100a38160405160240161007091906100c7565b60408051601f198184030181529190526020810180516001600160e01b0390811663104c13eb60e21b179091526100a616565b50565b80516a636f6e736f6c652e6c6f67602083016000808483855afa5050505050565b600060208083528351808285015260005b818110156100f4578581018301518582016040015282016100d8565b81811115610106576000604083870101525b50601f01601f1916929092016040019392505050565b610d4d8061012b6000396000f3fe608060405234801561001057600080fd5b506004361061007d5760003560e01c8063476672b61161005b578063476672b6146100c05780636e583cac146100d35780636f77926b146101065780638da5cb5b1461012657600080fd5b806325ad91ce146100825780632da96d731461008c578063351355c0146100aa575b600080fd5b61008a610151565b005b610094610246565b6040516100a19190610aaa565b60405180910390f35b6100b261049f565b6040519081526020016100a1565b61008a6100ce366004610b4b565b610673565b6100f96100e1366004610b7f565b60009081526002602052604090206003015460ff1690565b6040516100a19190610b98565b610119610114366004610bac565b610726565b6040516100a19190610bdc565b600054610139906001600160a01b031681565b6040516001600160a01b0390911681526020016100a1565b3360009081526003602052604090206001015460ff16156101ae5760405162461bcd60e51b8152602060048201526012602482015271155cd95c88105b1c9958591e48195e1a5cdd60721b60448201526064015b60405180910390fd5b604080516060808201835280825260006020808401828152848601939093528451808601865260088152673a32b9ba2ab9b2b960c11b81830152845260019092523381526003825292909220815180519293849361020f9284920190610911565b5060208281015160018301805460ff1916911515919091179055604083015180516102409260028501920190610995565b50505050565b3360009081526003602052604090206001015460609060ff166102a15760405162461bcd60e51b8152602060048201526013602482015272155cd95c88111bd95cc81b9bdd08195e1a5cdd606a1b60448201526064016101a5565b3360008181526003602052604081206002015467ffffffffffffffff8111156102cc576102cc610c52565b60405190808252806020026020018201604052801561030557816020015b6102f26109cf565b8152602001906001900390816102ea5790505b50905060005b6001600160a01b038316600090815260036020526040902060020154811015610498576001600160a01b0383166000908152600360205260408120600290810180549192918490811061036057610360610c68565b60009182526020808320909101548352828101939093526040918201902081516080810183528154815260018201546001600160a01b03169381019390935260028101805491928401916103b390610c7e565b80601f01602080910402602001604051908101604052809291908181526020018280546103df90610c7e565b801561042c5780601f106104015761010080835404028352916020019161042c565b820191906000526020600020905b81548152906001019060200180831161040f57829003601f168201915b5050509183525050600382015460209091019060ff16600281111561045357610453610a72565b600281111561046457610464610a72565b8152505082828151811061047a5761047a610c68565b6020026020010181905250808061049090610cb9565b91505061030b565b5091505090565b3360009081526003602052604081206001015460ff166104f75760405162461bcd60e51b8152602060048201526013602482015272155cd95c88111bd95cc81b9bdd08195e1a5cdd606a1b60448201526064016101a5565b600061050260015490565b9050610512600180546001019055565b60006040518060800160405280838152602001336001600160a01b031681526020016040518060400160405280600381526020016261626360e81b81525081526020016000600281111561056857610568610a72565b815250905061059b6040518060400160405280600c81526020016b199a5b194818dc99585d195960a21b815250836108a7565b60008281526002602081815260409283902084518155848201516001820180546001600160a01b0319166001600160a01b039092169190911790559284015180518594936105ee93908501920190610911565b50606082015160038201805460ff1916600183600281111561061257610612610a72565b0217905550503360009081526003602090815260408083206002018054600181018255908452928290209092018590558151808301909252600c82526b03732bb9034ba32b69034b2160a51b9082015261066d9150836108a7565b50905090565b60008281526002602052604090206001015482906001600160a01b031633146106e95760405162461bcd60e51b815260206004820152602260248201527f596f7520617265206e6f7420746865206f776e6572206f6620746869732066696044820152616c6560f01b60648201526084016101a5565b60008381526002602081905260409091206003018054849260ff1990911690600190849081111561071c5761071c610a72565b0217905550505050565b604080516060808201835280825260006020830152918101919091526001600160a01b0382166000908152600360205260409081902081516060810190925280548290829061077490610c7e565b80601f01602080910402602001604051908101604052809291908181526020018280546107a090610c7e565b80156107ed5780601f106107c2576101008083540402835291602001916107ed565b820191906000526020600020905b8154815290600101906020018083116107d057829003601f168201915b5050509183525050600182015460ff161515602080830191909152600283018054604080518285028101850182528281529401939283018282801561085157602002820191906000526020600020905b81548152602001906001019080831161083d575b5050505050815250509050919050565b6108a4816040516024016108759190610ce2565b60408051601f198184030181529190526020810180516001600160e01b031663104c13eb60e21b1790526108f0565b50565b6108ec82826040516024016108bd929190610cf5565b60408051601f198184030181529190526020810180516001600160e01b0316632d839cb360e21b1790526108f0565b5050565b80516a636f6e736f6c652e6c6f67602083016000808483855afa5050505050565b82805461091d90610c7e565b90600052602060002090601f01602090048101928261093f5760008555610985565b82601f1061095857805160ff1916838001178555610985565b82800160010185558215610985579182015b8281111561098557825182559160200191906001019061096a565b50610991929150610a10565b5090565b828054828255906000526020600020908101928215610985579160200282018281111561098557825182559160200191906001019061096a565b60405180608001604052806000815260200160006001600160a01b031681526020016060815260200160006002811115610a0b57610a0b610a72565b905290565b5b808211156109915760008155600101610a11565b6000815180845260005b81811015610a4b57602081850181015186830182015201610a2f565b81811115610a5d576000602083870101525b50601f01601f19169290920160200192915050565b634e487b7160e01b600052602160045260246000fd5b60038110610aa657634e487b7160e01b600052602160045260246000fd5b9052565b60006020808301818452808551808352604092508286019150828160051b87010184880160005b83811015610b3d57888303603f19018552815180518452878101516001600160a01b03168885015286810151608088860181905290610b1282870182610a25565b9150506060808301519250610b2981870184610a88565b509588019593505090860190600101610ad1565b509098975050505050505050565b60008060408385031215610b5e57600080fd5b82359150602083013560038110610b7457600080fd5b809150509250929050565b600060208284031215610b9157600080fd5b5035919050565b60208101610ba68284610a88565b92915050565b600060208284031215610bbe57600080fd5b81356001600160a01b0381168114610bd557600080fd5b9392505050565b600060208083528351606082850152610bf86080850182610a25565b858301511515604086810191909152860151858203601f19016060870152805180835290840192506000918401905b80831015610c475783518252928401926001929092019190840190610c27565b509695505050505050565b634e487b7160e01b600052604160045260246000fd5b634e487b7160e01b600052603260045260246000fd5b600181811c90821680610c9257607f821691505b60208210811415610cb357634e487b7160e01b600052602260045260246000fd5b50919050565b6000600019821415610cdb57634e487b7160e01b600052601160045260246000fd5b5060010190565b602081526000610bd56020830184610a25565b604081526000610d086040830185610a25565b9050826020830152939250505056fea2646970667358221220df9619b9149bb0f0c7ebdf68d515f176c3d31fe2b02ddf8ea7c5003560f5463664736f6c63430008090033",
  "linkReferences": {},
  "deployedLinkReferences": {}
}