{
  "_format": "hh-sol-artifact-1",
  "contractName": "Pixie",
  "sourceName": "contracts/Pixie.sol",
  "abi": [
    {
      "inputs": [],
      "stateMutability": "payable",
      "type": "constructor"
    },
    {
      "anonymous": false,
      "inputs": [
        {
          "indexed": true,
          "internalType": "address",
          "name": "account",
          "type": "address"
        },
        {
          "indexed": true,
          "internalType": "address",
          "name": "operator",
          "type": "address"
        },
        {
          "indexed": false,
          "internalType": "bool",
          "name": "approved",
          "type": "bool"
        }
      ],
      "name": "ApprovalForAll",
      "type": "event"
    },
    {
      "anonymous": false,
      "inputs": [
        {
          "indexed": true,
          "internalType": "address",
          "name": "operator",
          "type": "address"
        },
        {
          "indexed": true,
          "internalType": "address",
          "name": "from",
          "type": "address"
        },
        {
          "indexed": true,
          "internalType": "address",
          "name": "to",
          "type": "address"
        },
        {
          "indexed": false,
          "internalType": "uint256[]",
          "name": "ids",
          "type": "uint256[]"
        },
        {
          "indexed": false,
          "internalType": "uint256[]",
          "name": "values",
          "type": "uint256[]"
        }
      ],
      "name": "TransferBatch",
      "type": "event"
    },
    {
      "anonymous": false,
      "inputs": [
        {
          "indexed": true,
          "internalType": "address",
          "name": "operator",
          "type": "address"
        },
        {
          "indexed": true,
          "internalType": "address",
          "name": "from",
          "type": "address"
        },
        {
          "indexed": true,
          "internalType": "address",
          "name": "to",
          "type": "address"
        },
        {
          "indexed": false,
          "internalType": "uint256",
          "name": "id",
          "type": "uint256"
        },
        {
          "indexed": false,
          "internalType": "uint256",
          "name": "value",
          "type": "uint256"
        }
      ],
      "name": "TransferSingle",
      "type": "event"
    },
    {
      "anonymous": false,
      "inputs": [
        {
          "indexed": false,
          "internalType": "string",
          "name": "value",
          "type": "string"
        },
        {
          "indexed": true,
          "internalType": "uint256",
          "name": "id",
          "type": "uint256"
        }
      ],
      "name": "URI",
      "type": "event"
    },
    {
      "anonymous": false,
      "inputs": [
        {
          "indexed": true,
          "internalType": "uint256",
          "name": "fileId",
          "type": "uint256"
        }
      ],
      "name": "fileCreated",
      "type": "event"
    },
    {
      "inputs": [
        {
          "internalType": "address",
          "name": "account",
          "type": "address"
        },
        {
          "internalType": "uint256",
          "name": "id",
          "type": "uint256"
        }
      ],
      "name": "balanceOf",
      "outputs": [
        {
          "internalType": "uint256",
          "name": "",
          "type": "uint256"
        }
      ],
      "stateMutability": "view",
      "type": "function"
    },
    {
      "inputs": [
        {
          "internalType": "address[]",
          "name": "accounts",
          "type": "address[]"
        },
        {
          "internalType": "uint256[]",
          "name": "ids",
          "type": "uint256[]"
        }
      ],
      "name": "balanceOfBatch",
      "outputs": [
        {
          "internalType": "uint256[]",
          "name": "",
          "type": "uint256[]"
        }
      ],
      "stateMutability": "view",
      "type": "function"
    },
    {
      "inputs": [],
      "name": "createFile",
      "outputs": [],
      "stateMutability": "nonpayable",
      "type": "function"
    },
    {
      "inputs": [
        {
          "internalType": "uint256",
          "name": "_id",
          "type": "uint256"
        }
      ],
      "name": "getFile",
      "outputs": [
        {
          "components": [
            {
              "internalType": "uint256",
              "name": "id",
              "type": "uint256"
            },
            {
              "internalType": "address",
              "name": "owner",
              "type": "address"
            },
            {
              "internalType": "bool",
              "name": "accessTokens",
              "type": "bool"
            }
          ],
          "internalType": "struct Pixie.File",
          "name": "",
          "type": "tuple"
        }
      ],
      "stateMutability": "view",
      "type": "function"
    },
    {
      "inputs": [],
      "name": "getFiles",
      "outputs": [
        {
          "components": [
            {
              "internalType": "uint256",
              "name": "id",
              "type": "uint256"
            },
            {
              "internalType": "address",
              "name": "owner",
              "type": "address"
            },
            {
              "internalType": "bool",
              "name": "accessTokens",
              "type": "bool"
            }
          ],
          "internalType": "struct Pixie.File[]",
          "name": "",
          "type": "tuple[]"
        }
      ],
      "stateMutability": "view",
      "type": "function"
    },
    {
      "inputs": [
        {
          "internalType": "address",
          "name": "account",
          "type": "address"
        },
        {
          "internalType": "address",
          "name": "operator",
          "type": "address"
        }
      ],
      "name": "isApprovedForAll",
      "outputs": [
        {
          "internalType": "bool",
          "name": "",
          "type": "bool"
        }
      ],
      "stateMutability": "view",
      "type": "function"
    },
    {
      "inputs": [
        {
          "internalType": "uint256",
          "name": "id",
          "type": "uint256"
        },
        {
          "internalType": "uint256",
          "name": "amount",
          "type": "uint256"
        },
        {
          "internalType": "bool",
          "name": "updateUri",
          "type": "bool"
        },
        {
          "internalType": "string",
          "name": "newuri",
          "type": "string"
        }
      ],
      "name": "mint",
      "outputs": [],
      "stateMutability": "payable",
      "type": "function"
    },
    {
      "inputs": [],
      "name": "owner",
      "outputs": [
        {
          "internalType": "address payable",
          "name": "",
          "type": "address"
        }
      ],
      "stateMutability": "view",
      "type": "function"
    },
    {
      "inputs": [
        {
          "internalType": "address",
          "name": "from",
          "type": "address"
        },
        {
          "internalType": "address",
          "name": "to",
          "type": "address"
        },
        {
          "internalType": "uint256[]",
          "name": "ids",
          "type": "uint256[]"
        },
        {
          "internalType": "uint256[]",
          "name": "amounts",
          "type": "uint256[]"
        },
        {
          "internalType": "bytes",
          "name": "data",
          "type": "bytes"
        }
      ],
      "name": "safeBatchTransferFrom",
      "outputs": [],
      "stateMutability": "nonpayable",
      "type": "function"
    },
    {
      "inputs": [
        {
          "internalType": "address",
          "name": "from",
          "type": "address"
        },
        {
          "internalType": "address",
          "name": "to",
          "type": "address"
        },
        {
          "internalType": "uint256",
          "name": "id",
          "type": "uint256"
        },
        {
          "internalType": "uint256",
          "name": "amount",
          "type": "uint256"
        },
        {
          "internalType": "bytes",
          "name": "data",
          "type": "bytes"
        }
      ],
      "name": "safeTransferFrom",
      "outputs": [],
      "stateMutability": "nonpayable",
      "type": "function"
    },
    {
      "inputs": [
        {
          "internalType": "address",
          "name": "operator",
          "type": "address"
        },
        {
          "internalType": "bool",
          "name": "approved",
          "type": "bool"
        }
      ],
      "name": "setApprovalForAll",
      "outputs": [],
      "stateMutability": "nonpayable",
      "type": "function"
    },
    {
      "inputs": [
        {
          "internalType": "bytes4",
          "name": "interfaceId",
          "type": "bytes4"
        }
      ],
      "name": "supportsInterface",
      "outputs": [
        {
          "internalType": "bool",
          "name": "",
          "type": "bool"
        }
      ],
      "stateMutability": "view",
      "type": "function"
    },
    {
      "inputs": [
        {
          "internalType": "uint256",
          "name": "",
          "type": "uint256"
        }
      ],
      "name": "uri",
      "outputs": [
        {
          "internalType": "string",
          "name": "",
          "type": "string"
        }
      ],
      "stateMutability": "view",
      "type": "function"
    }
  ],
  "bytecode": "0x60a06040526000608090815262000016816200007c565b50600380546001600160a01b0319163317905560408051808201909152601c81527f436f6e7472616374206465706c6f7965642c206f776e65722073657400000000602080830191909152620000769190620009e262000095821b17901c565b6200023f565b80516200009190600290602084019062000104565b5050565b620000e081604051602401620000ac9190620001aa565b60408051601f198184030181529190526020810180516001600160e01b0390811663104c13eb60e21b17909152620000e316565b50565b80516a636f6e736f6c652e6c6f67602083016000808483855afa5050505050565b828054620001129062000202565b90600052602060002090601f01602090048101928262000136576000855562000181565b82601f106200015157805160ff191683800117855562000181565b8280016001018555821562000181579182015b828111156200018157825182559160200191906001019062000164565b506200018f92915062000193565b5090565b5b808211156200018f576000815560010162000194565b600060208083528351808285015260005b81811015620001d957858101830151858201604001528201620001bb565b81811115620001ec576000604083870101525b50601f01601f1916929092016040019392505050565b600181811c908216806200021757607f821691505b602082108114156200023957634e487b7160e01b600052602260045260246000fd5b50919050565b611beb806200024f6000396000f3fe6080604052600436106100c15760003560e01c8063351355c01161007f578063a22cb46511610059578063a22cb46514610298578063ba0899a4146102b8578063e985e9c5146102cb578063f242432a1461031457600080fd5b8063351355c01461021e5780634e1273f4146102335780638da5cb5b1461026057600080fd5b8062fdd58e146100c657806301ffc9a7146100f95780630e89341c146101295780632bfda313146101565780632da96d73146101da5780632eb2c2d6146101fc575b600080fd5b3480156100d257600080fd5b506100e66100e136600461128d565b610334565b6040519081526020015b60405180910390f35b34801561010557600080fd5b506101196101143660046112cd565b6103cd565b60405190151581526020016100f0565b34801561013557600080fd5b506101496101443660046112f1565b61041d565b6040516100f09190611357565b34801561016257600080fd5b506101cd6101713660046112f1565b60408051606080820183526000808352602080840182905292840181905293845260058252928290208251938401835280548452600101546001600160a01b03811691840191909152600160a01b900460ff1615159082015290565b6040516100f0919061136a565b3480156101e657600080fd5b506101ef6104b1565b6040516100f09190611396565b34801561020857600080fd5b5061021c610217366004611559565b610667565b005b34801561022a57600080fd5b5061021c6106b3565b34801561023f57600080fd5b5061025361024e366004611603565b610779565b6040516100f09190611709565b34801561026c57600080fd5b50600354610280906001600160a01b031681565b6040516001600160a01b0390911681526020016100f0565b3480156102a457600080fd5b5061021c6102b336600461172c565b6108a3565b61021c6102c636600461175f565b6108b2565b3480156102d757600080fd5b506101196102e63660046117d4565b6001600160a01b03918216600090815260016020908152604080832093909416825291909152205460ff1690565b34801561032057600080fd5b5061021c61032f3660046117fe565b61099d565b60006001600160a01b0383166103a45760405162461bcd60e51b815260206004820152602a60248201527f455243313135353a2061646472657373207a65726f206973206e6f742061207660448201526930b634b21037bbb732b960b11b60648201526084015b60405180910390fd5b506000818152602081815260408083206001600160a01b03861684529091529020545b92915050565b60006001600160e01b03198216636cdb3d1360e11b14806103fe57506001600160e01b031982166303a24d0760e21b145b806103c757506301ffc9a760e01b6001600160e01b03198316146103c7565b60606002805461042c90611863565b80601f016020809104026020016040519081016040528092919081815260200182805461045890611863565b80156104a55780601f1061047a576101008083540402835291602001916104a5565b820191906000526020600020905b81548152906001019060200180831161048857829003601f168201915b50505050509050919050565b3360009081526006602052604090205460609060ff166105095760405162461bcd60e51b8152602060048201526013602482015272155cd95c88111bd95cc81b9bdd08195e1a5cdd606a1b604482015260640161039b565b3360008181526006602052604081206001015467ffffffffffffffff81111561053457610534611403565b60405190808252806020026020018201604052801561057f57816020015b60408051606081018252600080825260208083018290529282015282526000199092019101816105525790505b50905060005b6001600160a01b03831660009081526006602052604090206001015481101561065f576001600160a01b038316600090815260066020526040812060010180546005929190849081106105da576105da61189e565b600091825260208083209190910154835282810193909352604091820190208151606081018352815481526001909101546001600160a01b03811693820193909352600160a01b90920460ff1615159082015282518390839081106106415761064161189e565b60200260200101819052508080610657906118ca565b915050610585565b509150505b90565b6001600160a01b038516331480610683575061068385336102e6565b61069f5760405162461bcd60e51b815260040161039b906118e5565b6106ac8585858585610a28565b5050505050565b60006106be60045490565b90506106ce600480546001019055565b604080516060810182528281523360208083018281526000848601818152878252600584528682208651815592516001938401805492511515600160a01b026001600160a81b03199093166001600160a01b039290921691909117919091179055928352600682528483208101805491820181558352908220018490559151909183917fb88f5170057a832315389bacb6a471640c1145c7948cf1945e4b99fbc47c9d819190a25050565b606081518351146107de5760405162461bcd60e51b815260206004820152602960248201527f455243313135353a206163636f756e747320616e6420696473206c656e677468604482015268040dad2e6dac2e8c6d60bb1b606482015260840161039b565b6000835167ffffffffffffffff8111156107fa576107fa611403565b604051908082528060200260200182016040528015610823578160200160208202803683370190505b50905060005b845181101561089b5761086e8582815181106108475761084761189e565b60200260200101518583815181106108615761086161189e565b6020026020010151610334565b8282815181106108805761088061189e565b6020908102919091010152610894816118ca565b9050610829565b509392505050565b6108ae338383610c05565b5050565b6000848152600560205260409020600101546001600160a01b031633146109255760405162461bcd60e51b815260206004820152602160248201527f596f7520617265206e6f7420746865206f776e6572206f66207468652066696c6044820152606560f81b606482015260840161039b565b61094033858560405180602001604052806000815250610ce6565b600182151514156109545761095481610dfa565b600084815260056020526040902060010154600160a01b900460ff16610997576000848152600560205260409020600101805460ff60a01b1916600160a01b1790555b50505050565b6001600160a01b0385163314806109b957506109b985336102e6565b6109d55760405162461bcd60e51b815260040161039b906118e5565b6106ac8585858585610e0d565b610a25816040516024016109f69190611357565b60408051601f198184030181529190526020810180516001600160e01b031663104c13eb60e21b179052610f37565b50565b8151835114610a8a5760405162461bcd60e51b815260206004820152602860248201527f455243313135353a2069647320616e6420616d6f756e7473206c656e677468206044820152670dad2e6dac2e8c6d60c31b606482015260840161039b565b6001600160a01b038416610ab05760405162461bcd60e51b815260040161039b90611933565b3360005b8451811015610b97576000858281518110610ad157610ad161189e565b602002602001015190506000858381518110610aef57610aef61189e565b602090810291909101810151600084815280835260408082206001600160a01b038e168352909352919091205490915081811015610b3f5760405162461bcd60e51b815260040161039b90611978565b6000838152602081815260408083206001600160a01b038e8116855292528083208585039055908b16825281208054849290610b7c9084906119c2565b9250508190555050505080610b90906118ca565b9050610ab4565b50846001600160a01b0316866001600160a01b0316826001600160a01b03167f4a39dc06d4c0dbc64b70af90fd698a233a518aa5d07e595d983b8c0526c8f7fb8787604051610be79291906119da565b60405180910390a4610bfd818787878787610f58565b505050505050565b816001600160a01b0316836001600160a01b03161415610c795760405162461bcd60e51b815260206004820152602960248201527f455243313135353a2073657474696e6720617070726f76616c20737461747573604482015268103337b91039b2b63360b91b606482015260840161039b565b6001600160a01b03838116600081815260016020908152604080832094871680845294825291829020805460ff191686151590811790915591519182527f17307eab39ab6107e8899845ad3d59bd9653f200f220920489ca2b5937696c31910160405180910390a3505050565b6001600160a01b038416610d465760405162461bcd60e51b815260206004820152602160248201527f455243313135353a206d696e7420746f20746865207a65726f206164647265736044820152607360f81b606482015260840161039b565b336000610d52856110c3565b90506000610d5f856110c3565b90506000868152602081815260408083206001600160a01b038b16845290915281208054879290610d919084906119c2565b909155505060408051878152602081018790526001600160a01b03808a1692600092918716917fc3d58168c5ae7397731d063d5bbf3d657854427343f4c083240f7aacaa2d0f62910160405180910390a4610df18360008989898961110e565b50505050505050565b80516108ae9060029060208401906111d8565b6001600160a01b038416610e335760405162461bcd60e51b815260040161039b90611933565b336000610e3f856110c3565b90506000610e4c856110c3565b90506000868152602081815260408083206001600160a01b038c16845290915290205485811015610e8f5760405162461bcd60e51b815260040161039b90611978565b6000878152602081815260408083206001600160a01b038d8116855292528083208985039055908a16825281208054889290610ecc9084906119c2565b909155505060408051888152602081018890526001600160a01b03808b16928c821692918816917fc3d58168c5ae7397731d063d5bbf3d657854427343f4c083240f7aacaa2d0f62910160405180910390a4610f2c848a8a8a8a8a61110e565b505050505050505050565b80516a636f6e736f6c652e6c6f67602083016000808483855afa5050505050565b6001600160a01b0384163b15610bfd5760405163bc197c8160e01b81526001600160a01b0385169063bc197c8190610f9c9089908990889088908890600401611a08565b602060405180830381600087803b158015610fb657600080fd5b505af1925050508015610fe6575060408051601f3d908101601f19168201909252610fe391810190611a66565b60015b61109357610ff2611a83565b806308c379a0141561102c5750611007611a9e565b80611012575061102e565b8060405162461bcd60e51b815260040161039b9190611357565b505b60405162461bcd60e51b815260206004820152603460248201527f455243313135353a207472616e7366657220746f206e6f6e2d455243313135356044820152732932b1b2b4bb32b91034b6b83632b6b2b73a32b960611b606482015260840161039b565b6001600160e01b0319811663bc197c8160e01b14610df15760405162461bcd60e51b815260040161039b90611b28565b604080516001808252818301909252606091600091906020808301908036833701905050905082816000815181106110fd576110fd61189e565b602090810291909101015292915050565b6001600160a01b0384163b15610bfd5760405163f23a6e6160e01b81526001600160a01b0385169063f23a6e61906111529089908990889088908890600401611b70565b602060405180830381600087803b15801561116c57600080fd5b505af192505050801561119c575060408051601f3d908101601f1916820190925261119991810190611a66565b60015b6111a857610ff2611a83565b6001600160e01b0319811663f23a6e6160e01b14610df15760405162461bcd60e51b815260040161039b90611b28565b8280546111e490611863565b90600052602060002090601f016020900481019282611206576000855561124c565b82601f1061121f57805160ff191683800117855561124c565b8280016001018555821561124c579182015b8281111561124c578251825591602001919060010190611231565b5061125892915061125c565b5090565b5b80821115611258576000815560010161125d565b80356001600160a01b038116811461128857600080fd5b919050565b600080604083850312156112a057600080fd5b6112a983611271565b946020939093013593505050565b6001600160e01b031981168114610a2557600080fd5b6000602082840312156112df57600080fd5b81356112ea816112b7565b9392505050565b60006020828403121561130357600080fd5b5035919050565b6000815180845260005b8181101561133057602081850181015186830182015201611314565b81811115611342576000602083870101525b50601f01601f19169290920160200192915050565b6020815260006112ea602083018461130a565b815181526020808301516001600160a01b031690820152604080830151151590820152606081016103c7565b6020808252825182820181905260009190848201906040850190845b818110156113f7576113e4838551805182526020808201516001600160a01b0316908301526040908101511515910152565b92840192606092909201916001016113b2565b50909695505050505050565b634e487b7160e01b600052604160045260246000fd5b601f8201601f1916810167ffffffffffffffff8111828210171561143f5761143f611403565b6040525050565b600067ffffffffffffffff82111561146057611460611403565b5060051b60200190565b600082601f83011261147b57600080fd5b8135602061148882611446565b6040516114958282611419565b83815260059390931b85018201928281019150868411156114b557600080fd5b8286015b848110156114d057803583529183019183016114b9565b509695505050505050565b600067ffffffffffffffff8311156114f5576114f5611403565b60405161150c601f8501601f191660200182611419565b80915083815284848401111561152157600080fd5b83836020830137600060208583010152509392505050565b600082601f83011261154a57600080fd5b6112ea838335602085016114db565b600080600080600060a0868803121561157157600080fd5b61157a86611271565b945061158860208701611271565b9350604086013567ffffffffffffffff808211156115a557600080fd5b6115b189838a0161146a565b945060608801359150808211156115c757600080fd5b6115d389838a0161146a565b935060808801359150808211156115e957600080fd5b506115f688828901611539565b9150509295509295909350565b6000806040838503121561161657600080fd5b823567ffffffffffffffff8082111561162e57600080fd5b818501915085601f83011261164257600080fd5b8135602061164f82611446565b60405161165c8282611419565b83815260059390931b850182019282810191508984111561167c57600080fd5b948201945b838610156116a15761169286611271565b82529482019490820190611681565b965050860135925050808211156116b757600080fd5b506116c48582860161146a565b9150509250929050565b600081518084526020808501945080840160005b838110156116fe578151875295820195908201906001016116e2565b509495945050505050565b6020815260006112ea60208301846116ce565b8035801515811461128857600080fd5b6000806040838503121561173f57600080fd5b61174883611271565b91506117566020840161171c565b90509250929050565b6000806000806080858703121561177557600080fd5b843593506020850135925061178c6040860161171c565b9150606085013567ffffffffffffffff8111156117a857600080fd5b8501601f810187136117b957600080fd5b6117c8878235602084016114db565b91505092959194509250565b600080604083850312156117e757600080fd5b6117f083611271565b915061175660208401611271565b600080600080600060a0868803121561181657600080fd5b61181f86611271565b945061182d60208701611271565b93506040860135925060608601359150608086013567ffffffffffffffff81111561185757600080fd5b6115f688828901611539565b600181811c9082168061187757607f821691505b6020821081141561189857634e487b7160e01b600052602260045260246000fd5b50919050565b634e487b7160e01b600052603260045260246000fd5b634e487b7160e01b600052601160045260246000fd5b60006000198214156118de576118de6118b4565b5060010190565b6020808252602e908201527f455243313135353a2063616c6c6572206973206e6f7420746f6b656e206f776e60408201526d195c881bdc88185c1c1c9bdd995960921b606082015260800190565b60208082526025908201527f455243313135353a207472616e7366657220746f20746865207a65726f206164604082015264647265737360d81b606082015260800190565b6020808252602a908201527f455243313135353a20696e73756666696369656e742062616c616e636520666f60408201526939103a3930b739b332b960b11b606082015260800190565b600082198211156119d5576119d56118b4565b500190565b6040815260006119ed60408301856116ce565b82810360208401526119ff81856116ce565b95945050505050565b6001600160a01b0386811682528516602082015260a060408201819052600090611a34908301866116ce565b8281036060840152611a4681866116ce565b90508281036080840152611a5a818561130a565b98975050505050505050565b600060208284031215611a7857600080fd5b81516112ea816112b7565b600060033d11156106645760046000803e5060005160e01c90565b600060443d1015611aac5790565b6040516003193d81016004833e81513d67ffffffffffffffff8160248401118184111715611adc57505050505090565b8285019150815181811115611af45750505050505090565b843d8701016020828501011115611b0e5750505050505090565b611b1d60208286010187611419565b509095945050505050565b60208082526028908201527f455243313135353a204552433131353552656365697665722072656a656374656040820152676420746f6b656e7360c01b606082015260800190565b6001600160a01b03868116825285166020820152604081018490526060810183905260a060808201819052600090611baa9083018461130a565b97965050505050505056fea26469706673582212206f84de3cd0d83a7888d48d721a98e437b31fd484769cdcb2b1521c8b195fb8a264736f6c63430008090033",
  "linkReferences": {},
  "deployedLinkReferences": {}
}